{
  "contractName": "AuctionContract",
  "abi": [
    {
      "inputs": [
        {
          "internalType": "address",
          "name": "_addressContract",
          "type": "address"
        }
      ],
      "stateMutability": "nonpayable",
      "type": "constructor"
    },
    {
      "anonymous": false,
      "inputs": [
        {
          "indexed": true,
          "internalType": "address",
          "name": "addressBidder",
          "type": "address"
        },
        {
          "indexed": false,
          "internalType": "uint256",
          "name": "bid",
          "type": "uint256"
        }
      ],
      "name": "Bidders",
      "type": "event"
    },
    {
      "anonymous": false,
      "inputs": [
        {
          "indexed": true,
          "internalType": "address",
          "name": "previousOwner",
          "type": "address"
        },
        {
          "indexed": true,
          "internalType": "address",
          "name": "newOwner",
          "type": "address"
        }
      ],
      "name": "OwnershipTransferred",
      "type": "event"
    },
    {
      "inputs": [],
      "name": "owner",
      "outputs": [
        {
          "internalType": "address",
          "name": "",
          "type": "address"
        }
      ],
      "stateMutability": "view",
      "type": "function"
    },
    {
      "inputs": [],
      "name": "renounceOwnership",
      "outputs": [],
      "stateMutability": "nonpayable",
      "type": "function"
    },
    {
      "inputs": [
        {
          "internalType": "address",
          "name": "newOwner",
          "type": "address"
        }
      ],
      "name": "transferOwnership",
      "outputs": [],
      "stateMutability": "nonpayable",
      "type": "function"
    },
    {
      "inputs": [
        {
          "internalType": "address",
          "name": "_address",
          "type": "address"
        }
      ],
      "name": "removeRoyaltiesAdress",
      "outputs": [],
      "stateMutability": "nonpayable",
      "type": "function"
    },
    {
      "inputs": [
        {
          "internalType": "address",
          "name": "_addressContract",
          "type": "address"
        }
      ],
      "name": "setAddressContract",
      "outputs": [],
      "stateMutability": "nonpayable",
      "type": "function"
    },
    {
      "inputs": [
        {
          "internalType": "string",
          "name": "keyParams",
          "type": "string"
        },
        {
          "internalType": "uint256",
          "name": "valueParams",
          "type": "uint256"
        }
      ],
      "name": "setParamsContract",
      "outputs": [],
      "stateMutability": "nonpayable",
      "type": "function"
    },
    {
      "inputs": [
        {
          "internalType": "string",
          "name": "keyParams",
          "type": "string"
        }
      ],
      "name": "getParamsContract",
      "outputs": [
        {
          "internalType": "uint256",
          "name": "",
          "type": "uint256"
        }
      ],
      "stateMutability": "view",
      "type": "function"
    },
    {
      "inputs": [],
      "name": "mintDelegate",
      "outputs": [],
      "stateMutability": "payable",
      "type": "function"
    },
    {
      "inputs": [
        {
          "internalType": "address",
          "name": "user",
          "type": "address"
        }
      ],
      "name": "getAllTokensForUser",
      "outputs": [
        {
          "internalType": "uint256[]",
          "name": "",
          "type": "uint256[]"
        }
      ],
      "stateMutability": "view",
      "type": "function"
    },
    {
      "inputs": [
        {
          "internalType": "uint256",
          "name": "tokenId",
          "type": "uint256"
        }
      ],
      "name": "getTokenDetails",
      "outputs": [
        {
          "components": [
            {
              "internalType": "uint8[]",
              "name": "params8",
              "type": "uint8[]"
            },
            {
              "internalType": "uint256[]",
              "name": "params256",
              "type": "uint256[]"
            }
          ],
          "internalType": "struct TokenArkania.Token",
          "name": "",
          "type": "tuple"
        }
      ],
      "stateMutability": "view",
      "type": "function"
    },
    {
      "inputs": [],
      "name": "bidding",
      "outputs": [],
      "stateMutability": "payable",
      "type": "function"
    },
    {
      "inputs": [],
      "name": "getAllBidders",
      "outputs": [
        {
          "internalType": "uint256[]",
          "name": "",
          "type": "uint256[]"
        }
      ],
      "stateMutability": "view",
      "type": "function"
    },
    {
      "inputs": [
        {
          "internalType": "uint256",
          "name": "bidderId",
          "type": "uint256"
        }
      ],
      "name": "getBidderDetails",
      "outputs": [
        {
          "components": [
            {
              "internalType": "address",
              "name": "addressBidder",
              "type": "address"
            },
            {
              "internalType": "uint256",
              "name": "bid",
              "type": "uint256"
            }
          ],
          "internalType": "struct AuctionContract.Bidder",
          "name": "",
          "type": "tuple"
        }
      ],
      "stateMutability": "view",
      "type": "function"
    },
    {
      "inputs": [],
      "name": "startAuction",
      "outputs": [],
      "stateMutability": "nonpayable",
      "type": "function"
    },
    {
      "inputs": [],
      "name": "endAuction",
      "outputs": [],
      "stateMutability": "nonpayable",
      "type": "function"
    },
    {
      "inputs": [],
      "name": "payRoyalties",
      "outputs": [],
      "stateMutability": "nonpayable",
      "type": "function"
    },
    {
      "inputs": [],
      "name": "withdraw",
      "outputs": [],
      "stateMutability": "nonpayable",
      "type": "function"
    },
    {
      "inputs": [
        {
          "internalType": "uint256",
          "name": "amount",
          "type": "uint256"
        }
      ],
      "name": "deposit",
      "outputs": [],
      "stateMutability": "payable",
      "type": "function"
    }
  ],
  "bytecode": "0x60806040523480156200001157600080fd5b50604051620017fc380380620017fc8339810160408190526200003491620001d0565b6200003f33620000f8565b600480546001600160a01b0319166001600160a01b03831617905560405162189a5960ea1b815267016345785d8a0000906003908101908152604051908190036020018120919091556b39ba30b93a20bab1ba34b7b760a11b8152600090600390600c0190815260405190819003602001902055620000d2730ce1a376d6cc69a6f74f27e7b1d65171fcb69c8062000148565b620000f173b02d6e4a6aae738c02651739c27fb2ae0fc92b1462000148565b5062000231565b600080546001600160a01b038381166001600160a01b0319831681178455604051919092169283917f8be0079c531659141344cd1fd0a4f28419497f9722a3daafe3b4186f6b6457e09190a35050565b6040805180820182526001600160a01b038084168252600160208084018281526007805460ff9081166000908152949093529583209451855491511515600160a01b026001600160a81b0319909216941693909317929092179092558254169190620001b48362000202565b91906101000a81548160ff021916908360ff1602179055505050565b600060208284031215620001e357600080fd5b81516001600160a01b0381168114620001fb57600080fd5b9392505050565b600060ff821660ff8114156200022857634e487b7160e01b600052601160045260246000fd5b60010192915050565b6115bb80620002416000396000f3fe6080604052600436106101095760003560e01c80639c344cf211610095578063db774c7911610064578063db774c79146102f0578063e322a56a146102f8578063f26bf0b71461030d578063f2fde38b1461033b578063fe67a54b1461035b57600080fd5b80639c344cf21461020a578063b6b55f2514610290578063c1e03728146102a3578063d6b730d2146102d057600080fd5b80635c70bac3116100dc5780635c70bac3146101785780636b64c76914610198578063715018a6146101ad57806382de8fe9146101c25780638da5cb5b146101e257600080fd5b80630672a90a1461010e5780633a79d2e5146101185780633cb11944146101435780633ccfd60b14610163575b600080fd5b610116610370565b005b34801561012457600080fd5b5061012d6103f3565b60405161013a919061134b565b60405180910390f35b34801561014f57600080fd5b5061011661015e366004611110565b610492565b34801561016f57600080fd5b506101166104ea565b34801561018457600080fd5b50610116610193366004611064565b610519565b3480156101a457600080fd5b506101166105b2565b3480156101b957600080fd5b506101166105e6565b3480156101ce57600080fd5b5061012d6101dd366004611064565b61061c565b3480156101ee57600080fd5b506000546040516001600160a01b03909116815260200161013a565b34801561021657600080fd5b5061026c610225366004611250565b604080518082019091526000808252602082015250600090815260026020908152604091829020825180840190935280546001600160a01b03168352600101549082015290565b6040805182516001600160a01b03168152602092830151928101929092520161013a565b61011661029e366004611250565b6106ac565b3480156102af57600080fd5b506102c36102be366004611250565b6106b8565b60405161013a9190611393565b3480156102dc57600080fd5b506101166102eb366004611064565b61074c565b610116610798565b34801561030457600080fd5b506101166109b5565b34801561031957600080fd5b5061032d6103283660046110db565b610a63565b60405190815260200161013a565b34801561034757600080fd5b50610116610356366004611064565b610a8b565b34801561036757600080fd5b50610116610b23565b600061037a610db9565b90506000610386610e16565b600480546040516375276ed160e11b81529293506001600160a01b031691829163ea4edda2916103bc91339188918891016112df565b600060405180830381600087803b1580156103d657600080fd5b505af11580156103ea573d6000803e3d6000fd5b50505050505050565b6060600060065467ffffffffffffffff8111156104125761041261155a565b60405190808252806020026020018201604052801561043b578160200160208202803683370190505b5090506000805b60065481101561048a578083838151811061045f5761045f611544565b602090810291909101015281610474816114c9565b9250508080610482906114c9565b915050610442565b509092915050565b6000546001600160a01b031633146104c55760405162461bcd60e51b81526004016104bc9061135e565b60405180910390fd5b806003836040516104d691906112a4565b908152604051908190036020019020555050565b60405133904780156108fc02916000818181858888f19350505050158015610516573d6000803e3d6000fd5b50565b60005b60075460ff908116908216116105ae5760ff81166000908152600160205260409020546001600160a01b038381169116141561059c5760ff8082166000908152600160205260408120805460ff60a01b19169055600780549092169190610582836114ac565b91906101000a81548160ff021916908360ff160217905550505b806105a6816114e4565b91505061051c565b5050565b4260036040516105d4906b39ba30b93a20bab1ba34b7b760a11b8152600c0190565b90815260405190819003602001902055565b6000546001600160a01b031633146106105760405162461bcd60e51b81526004016104bc9061135e565b61061a6000610e63565b565b600480546040516382de8fe960e01b81526001600160a01b03848116938201939093526060929091169081906382de8fe99060240160006040518083038186803b15801561066957600080fd5b505afa15801561067d573d6000803e3d6000fd5b505050506040513d6000823e601f3d908101601f191682016040526106a5919081019061109e565b9392505050565b80341461051657600080fd5b60408051808201909152606080825260208201526004805460405163183c06e560e31b81529182018490526001600160a01b031690819063c1e037289060240160006040518083038186803b15801561071057600080fd5b505afa158015610724573d6000803e3d6000fd5b505050506040513d6000823e601f3d908101601f191682016040526106a59190810190611155565b6000546001600160a01b031633146107765760405162461bcd60e51b81526004016104bc9061135e565b600480546001600160a01b0319166001600160a01b0392909216919091179055565b60405162189a5960ea1b8152600390810190815260200160405180910390205434116108065760405162461bcd60e51b815260206004820152601c60248201527f52657175697265206d6f72652045544820666f722062696464696e670000000060448201526064016104bc565b604080516b39ba30b93a20bab1ba34b7b760a11b81526003600c820152905190819003602c019020546108715760405162461bcd60e51b8152602060048201526013602482015272105d58dd1a5bdb881b9bdd081cdd185c9d1959606a1b60448201526064016104bc565b604080516b39ba30b93a20bab1ba34b7b760a11b81526003600c820152905190819003602c019020546108a690610258611480565b42106108ea5760405162461bcd60e51b8152602060048201526013602482015272105d58dd1a5bdb881a5cc8199a5b9a5cda1959606a1b60448201526064016104bc565b3460036040516109039062189a5960ea1b815260030190565b9081526040805191829003602090810183209390935581810181523380835234848401818152600654600090815260028752849020945185546001600160a01b039091166001600160a01b031991821617865590516001909501949094556005805490941682179093559051918252917fe254e1bfba15aa47e1722f8875e9129681f2762faf4442f643cd2e2043bd27ab910160405180910390a2600680549060006109ae836114c9565b9190505550565b60005b60075460ff90811690821611610516576007546000906109db9060ff1647611498565b60ff808416600090815260016020819052604090912054929350600160a01b9092041615151415610a505760ff82166000908152600160205260408082205490516001600160a01b039091169183156108fc02918491818181858888f19350505050158015610a4e573d6000803e3d6000fd5b505b5080610a5b816114e4565b9150506109b8565b6000600382604051610a7591906112a4565b9081526020016040518091039020549050919050565b6000546001600160a01b03163314610ab55760405162461bcd60e51b81526004016104bc9061135e565b6001600160a01b038116610b1a5760405162461bcd60e51b815260206004820152602660248201527f4f776e61626c653a206e6577206f776e657220697320746865207a65726f206160448201526564647265737360d01b60648201526084016104bc565b61051681610e63565b604080516b39ba30b93a20bab1ba34b7b760a11b81526003600c820152905190819003602c01902054610b5890610258611480565b421015610b9d5760405162461bcd60e51b8152602060048201526013602482015272105d58dd1a5bdb881a5cc8199a5b9a5cda1959606a1b60448201526064016104bc565b600754610100900460ff1615610be95760405162461bcd60e51b815260206004820152601160248201527018dbdb1b1958dd1a5bdb881cd95b1b1959607a1b60448201526064016104bc565b6004546001600160a01b031660005b6006548111610da1576000818152600260205260409020546005546001600160a01b0390811691161415610d425760005b600a811015610d3c57604051630836387160e41b8152600481018290526001600160a01b0384169063beabacc890829063836387109060240160206040518083038186803b158015610c7a57600080fd5b505afa158015610c8e573d6000803e3d6000fd5b505050506040513d601f19601f82011682018060405250810190610cb29190611081565b6000858152600260205260409081902054905160e084901b6001600160e01b03191681526001600160a01b0392831660048201529116602482015260448101849052606401600060405180830381600087803b158015610d1157600080fd5b505af1158015610d25573d6000803e3d6000fd5b505050508080610d34906114c9565b915050610c29565b50610d8f565b600081815260026020526040808220805460019091015491516001600160a01b039091169282156108fc02929190818181858888f19350505050158015610d8d573d6000803e3d6000fd5b505b80610d99816114c9565b915050610bf8565b506007805461ff0019166101001790556105166109b5565b60408051600a8082526101608201909252606091600091906020820161014080368337019050509050610dec6004610eb3565b81600081518110610dff57610dff611544565b60ff90921660209283029190910190910152919050565b60408051600a80825261016082019092526060916000919060208201610140803683370190505090504281600081518110610e5357610e53611544565b6020908102919091010152919050565b600080546001600160a01b038381166001600160a01b0319831681178455604051919092169283917f8be0079c531659141344cd1fd0a4f28419497f9722a3daafe3b4186f6b6457e09190a35050565b6000808260ff1642336003604051610ed690646e6f6e636560d81b815260050190565b908152602001604051809103902054604051602001610f1a9392919092835260609190911b6bffffffffffffffffffffffff19166020830152603482015260540190565b6040516020818303038152906040528051906020012060001c610f3d9190611504565b90506003604051610f5990646e6f6e636560d81b815260050190565b9081526040519081900360200190208054906000610f76836114c9565b90915550909392505050565b600082601f830112610f9357600080fd5b81516020610fa8610fa38361145c565b61142b565b80838252828201915082860187848660051b8901011115610fc857600080fd5b60005b85811015610fe757815184529284019290840190600101610fcb565b5090979650505050505050565b600082601f83011261100557600080fd5b813567ffffffffffffffff81111561101f5761101f61155a565b611032601f8201601f191660200161142b565b81815284602083860101111561104757600080fd5b816020850160208301376000918101602001919091529392505050565b60006020828403121561107657600080fd5b81356106a581611570565b60006020828403121561109357600080fd5b81516106a581611570565b6000602082840312156110b057600080fd5b815167ffffffffffffffff8111156110c757600080fd5b6110d384828501610f82565b949350505050565b6000602082840312156110ed57600080fd5b813567ffffffffffffffff81111561110457600080fd5b6110d384828501610ff4565b6000806040838503121561112357600080fd5b823567ffffffffffffffff81111561113a57600080fd5b61114685828601610ff4565b95602094909401359450505050565b6000602080838503121561116857600080fd5b825167ffffffffffffffff8082111561118057600080fd5b908401906040828703121561119457600080fd5b61119c611402565b8251828111156111ab57600080fd5b8301601f810188136111bc57600080fd5b80516111ca610fa38261145c565b8082825287820191508784018b898560051b87010111156111ea57600080fd5b600094505b8385101561121c57805160ff8116811461120857600080fd5b8352600194909401939188019188016111ef565b508452505050828401518281111561123357600080fd5b61123f88828601610f82565b948201949094529695505050505050565b60006020828403121561126257600080fd5b5035919050565b600081518084526020808501945080840160005b838110156112995781518752958201959082019060010161127d565b509495945050505050565b6000825160005b818110156112c557602081860181015185830152016112ab565b818111156112d4576000828501525b509190910192915050565b6001600160a01b038416815260606020808301829052845191830182905260009185820191906080850190845b8181101561132b57845160ff168352938301939183019160010161130c565b5050848103604086015261133f8187611269565b98975050505050505050565b6020815260006106a56020830184611269565b6020808252818101527f4f776e61626c653a2063616c6c6572206973206e6f7420746865206f776e6572604082015260600190565b6020808252825160408383015280516060840181905260009291820190839060808601905b808310156113db57835160ff1682529284019260019290920191908401906113b8565b5092860151858403601f19016040870152926113f78185611269565b979650505050505050565b6040805190810167ffffffffffffffff811182821017156114255761142561155a565b60405290565b604051601f8201601f1916810167ffffffffffffffff811182821017156114545761145461155a565b604052919050565b600067ffffffffffffffff8211156114765761147661155a565b5060051b60200190565b6000821982111561149357611493611518565b500190565b6000826114a7576114a761152e565b500490565b600060ff8216806114bf576114bf611518565b6000190192915050565b60006000198214156114dd576114dd611518565b5060010190565b600060ff821660ff8114156114fb576114fb611518565b60010192915050565b6000826115135761151361152e565b500690565b634e487b7160e01b600052601160045260246000fd5b634e487b7160e01b600052601260045260246000fd5b634e487b7160e01b600052603260045260246000fd5b634e487b7160e01b600052604160045260246000fd5b6001600160a01b038116811461051657600080fdfea2646970667358221220efd19af48dd003970b7dfad90268f048583f27efc1c2b6e5508dc3d87ad480ff64736f6c63430008060033",
  "immutableReferences": {},
  "source": "pragma solidity ^0.8.0;\r\n\r\nimport '@openzeppelin/contracts/access/Ownable.sol';\r\nimport './ArkaniaToken.sol';\r\n\r\ncontract AuctionContract is Ownable {\r\n\r\n\r\n    struct RoyaltiesAddresses {\r\n        address addressRoyalties;\r\n        bool valid;\r\n    }\r\n\r\n    struct Bidder {\r\n        address addressBidder;\r\n        uint256 bid;\r\n    }\r\n    \r\n    event Bidders(address indexed addressBidder, uint256 bid);\r\n\r\n    mapping( uint8 => RoyaltiesAddresses ) private _addressRoyalties;\r\n    mapping( uint256 => Bidder ) private _bidders;\r\n    mapping( string => uint ) paramsContract;//Allows great scalability, you can add or remove as many variables as you want\r\n    address addressContractToken;\r\n    address lastBidder;\r\n    uint256 countBidder;\r\n    uint8 countAddressRoyalties;\r\n    bool endedAndTransfered;\r\n\r\n\r\n    constructor(address _addressContract) {\r\n        addressContractToken = _addressContract;\r\n        paramsContract[\"bid\"] = 100000000000000000;//set minimum price\r\n        paramsContract[\"startAuction\"] = 0;//start auction date\r\n        //transferOwnership(_sender);//Change Owner contract\r\n        /**\r\n        Create two addresses to collect royalties\r\n         */\r\n        setRoyaltiesAdress(0x0cE1A376d6CC69a6F74f27E7B1D65171fcB69C80);\r\n        setRoyaltiesAdress(0xb02D6e4A6aae738C02651739c27Fb2AE0Fc92b14);\r\n    }\r\n\r\n    /**\r\n    Create addresses to which to send royalties and the percentages they will receive\r\n     */\r\n    function setRoyaltiesAdress(address _address) internal{\r\n        _addressRoyalties[countAddressRoyalties] = RoyaltiesAddresses(_address,true);\r\n        countAddressRoyalties++;\r\n    }\r\n\r\n    /**\r\n    Remove addresses to which to send royalties and the percentages they will receive\r\n     */\r\n    function removeRoyaltiesAdress(address _address) external {\r\n        for (uint8 iRoyalties = 0; iRoyalties <= countAddressRoyalties; iRoyalties++) {\r\n            if(_addressRoyalties[iRoyalties].addressRoyalties == _address){\r\n                _addressRoyalties[iRoyalties].valid = false;\r\n                countAddressRoyalties--;\r\n            }\r\n        }\r\n    }\r\n\r\n    /**\r\n    Update address of token\r\n     */\r\n    function setAddressContract(address _addressContract) external onlyOwner {\r\n        addressContractToken = _addressContract;\r\n    }\r\n\r\n    /**\r\n    Update dynamic array of params of this contract\r\n     */\r\n    function setParamsContract(string memory keyParams, uint valueParams) external onlyOwner {\r\n        paramsContract[keyParams] = valueParams;\r\n    }\r\n\r\n    /**\r\n    Get value of one element of array parameter of contract  \r\n    */\r\n    function getParamsContract(string memory keyParams) external view returns (uint256){\r\n        return paramsContract[keyParams];\r\n    }\r\n\r\n    /**\r\n    We add a small random parameter for fun\r\n    And we leave 9 place in a dynamic array if needed to add variables\r\n    */\r\n    function randomParams8() internal virtual returns (uint8[] memory) {\r\n        uint8[] memory randomParts = new uint8[](10);\r\n        randomParts[0] = random(4);//color\r\n        return randomParts;\r\n    }\r\n\r\n    /**\r\n    We add created_at and price buy in auction\r\n    And we leave 9 place in a dynamic array if needed to add variables\r\n     */\r\n    function randomParams256() internal virtual returns (uint256[] memory) {\r\n        uint256[] memory randomParams = new uint256[](10);\r\n        randomParams[0] = block.timestamp;//created_at\r\n        return randomParams;\r\n    }\r\n\r\n    function mintDelegate() external payable {\r\n        uint8[] memory randomParts = randomParams8();\r\n        uint256[] memory randomParams = randomParams256();\r\n\r\n        TokenArkania contrat = TokenArkania(addressContractToken);\r\n        contrat.mint(msg.sender, randomParts, randomParams);\r\n    }\r\n\r\n    /**\r\n    retrieve all id tokens of a specific user in a table\r\n     */\r\n    function getAllTokensForUser(address user) external view returns (uint256[] memory){\r\n        TokenArkania contrat = TokenArkania(addressContractToken);\r\n        return contrat.getAllTokensForUser(user);\r\n    }\r\n\r\n    /**\r\n    Recover the details of a token by passing its id\r\n     */\r\n    function getTokenDetails(uint256 tokenId) external view returns (TokenArkania.Token memory){\r\n        TokenArkania contrat = TokenArkania(addressContractToken);\r\n        return contrat.getTokenDetails(tokenId);\r\n    }\r\n\r\n    /**\r\n    Bid for the collection\r\n    Verify that the bidder has sent more ETH than the initial and the last auction\r\n    Check that the auction has started and is not yet finished\r\n     */\r\n    function bidding() external payable {\r\n        require(msg.value>paramsContract[\"bid\"],\"Require more ETH for bidding\");\r\n        require(paramsContract[\"startAuction\"]!=0,\"Auction not started\");\r\n        require(block.timestamp<(paramsContract[\"startAuction\"]+10 minutes),\"Auction is finished\");\r\n        paramsContract[\"bid\"] = msg.value;\r\n        _bidders[countBidder] = Bidder(msg.sender,msg.value);\r\n        lastBidder = msg.sender;\r\n        emit Bidders(msg.sender,msg.value);\r\n        countBidder++;\r\n    }\r\n    \r\n    function getAllBidders() external view returns (uint256[] memory){\r\n        uint[] memory result = new uint256[](countBidder);\r\n        uint256 resultIndex = 0;\r\n        uint256 i;\r\n        for(i = 0; i < countBidder; i++){\r\n            result[resultIndex] = i;\r\n            resultIndex++;\r\n        }\r\n        return result;\r\n    }\r\n\r\n    function getBidderDetails(uint256 bidderId) external view returns (Bidder memory){\r\n        return _bidders[bidderId];\r\n    }\r\n\r\n    /**\r\n    should be only owner, but louis must be able to use it\r\n     */\r\n    function startAuction() external {\r\n        paramsContract[\"startAuction\"] = block.timestamp;\r\n    }\r\n\r\n    /**\r\n    We refund all those who are not the last to bid\r\n    We send the collection to the winner of the auction\r\n    And we send royalties percent at address setted\r\n    should be only owner, but louis must be able to use it\r\n     */\r\n    function endAuction() external{\r\n        require(block.timestamp>=(paramsContract[\"startAuction\"]+10 minutes),\"Auction is finished\");\r\n        require(endedAndTransfered==false,\"collection selled\");\r\n        TokenArkania contrat = TokenArkania(addressContractToken);\r\n        for(uint256 i = 0; i <= countBidder; i++){\r\n            if(lastBidder == _bidders[i].addressBidder){\r\n                for (uint256 iToken = 0; iToken < 10; iToken++) {\r\n                    contrat.transfer(contrat.getOwnerOf(iToken), _bidders[i].addressBidder, iToken);\r\n                }\r\n            }else{\r\n                payable(_bidders[i].addressBidder).transfer(_bidders[i].bid);\r\n            }\r\n        }\r\n        endedAndTransfered = true;\r\n        payRoyalties();\r\n    }\r\n\r\n    /**\r\n    Pay royalties\r\n    */\r\n    function payRoyalties() public{\r\n        for (uint8 iRoyalties = 0; iRoyalties <= countAddressRoyalties; iRoyalties++) {\r\n            uint256 percent = address(this).balance/countAddressRoyalties;\r\n            if(_addressRoyalties[iRoyalties].valid == true){\r\n                payable(_addressRoyalties[iRoyalties].addressRoyalties).transfer(percent);\r\n            }\r\n        }\r\n    }\r\n\r\n    /**\r\n    Very heavy function, but useful to create random values on the token mint\r\n     */\r\n    function random(uint8 maxNumber) internal returns (uint8) {\r\n        uint256 randomnumber = uint256(keccak256(abi.encodePacked(block.timestamp, msg.sender, paramsContract[\"nonce\"]))) % maxNumber;\r\n        paramsContract[\"nonce\"]++;\r\n        return uint8(randomnumber);\r\n    }\r\n\r\n    /**\r\n    Handling of funds, just in case\r\n    should be only owner, but louis must be able to use it\r\n     */\r\n    function withdraw() external {\r\n        payable(msg.sender).transfer(address(this).balance);\r\n    }\r\n\r\n    function deposit(uint256 amount) payable external {\r\n        require(msg.value == amount);\r\n    }\r\n\r\n}\r\n\r\n",
  "sourcePath": "C:\\Users\\KevinDell'ova\\Desktop\\Arkania\\contracts\\AuctionArkania.sol",
  "compiler": {
    "name": "solc",
    "version": "0.8.6+commit.11564f7e.Emscripten.clang"
  },
  "schemaVersion": "3.4.4",
  "updatedAt": "2022-02-27T16:37:18.069Z",
  "networkType": "ethereum",
  "devdoc": {
    "kind": "dev",
    "methods": {
      "owner()": {
        "details": "Returns the address of the current owner."
      },
      "renounceOwnership()": {
        "details": "Leaves the contract without owner. It will not be possible to call `onlyOwner` functions anymore. Can only be called by the current owner. NOTE: Renouncing ownership will leave the contract without an owner, thereby removing any functionality that is only available to the owner."
      },
      "transferOwnership(address)": {
        "details": "Transfers ownership of the contract to a new account (`newOwner`). Can only be called by the current owner."
      }
    },
    "version": 1
  },
  "userdoc": {
    "kind": "user",
    "methods": {
      "bidding()": {
        "notice": "Bid for the collection Verify that the bidder has sent more ETH than the initial and the last auction Check that the auction has started and is not yet finished"
      },
      "endAuction()": {
        "notice": "We refund all those who are not the last to bid We send the collection to the winner of the auction And we send royalties percent at address setted should be only owner, but louis must be able to use it"
      },
      "getAllTokensForUser(address)": {
        "notice": "retrieve all id tokens of a specific user in a table"
      },
      "getParamsContract(string)": {
        "notice": "Get value of one element of array parameter of contract  "
      },
      "getTokenDetails(uint256)": {
        "notice": "Recover the details of a token by passing its id"
      },
      "payRoyalties()": {
        "notice": "Pay royalties"
      },
      "removeRoyaltiesAdress(address)": {
        "notice": "Remove addresses to which to send royalties and the percentages they will receive"
      },
      "setAddressContract(address)": {
        "notice": "Update address of token"
      },
      "setParamsContract(string,uint256)": {
        "notice": "Update dynamic array of params of this contract"
      },
      "startAuction()": {
        "notice": "should be only owner, but louis must be able to use it"
      },
      "withdraw()": {
        "notice": "Handling of funds, just in case should be only owner, but louis must be able to use it"
      }
    },
    "version": 1
  }
}