{
  "contractName": "ERC721Arkania",
  "abi": [
    {
      "inputs": [],
      "stateMutability": "nonpayable",
      "type": "constructor"
    },
    {
      "anonymous": false,
      "inputs": [
        {
          "indexed": true,
          "internalType": "address",
          "name": "owner",
          "type": "address"
        },
        {
          "indexed": true,
          "internalType": "address",
          "name": "approved",
          "type": "address"
        },
        {
          "indexed": true,
          "internalType": "uint256",
          "name": "tokenId",
          "type": "uint256"
        }
      ],
      "name": "Approval",
      "type": "event"
    },
    {
      "anonymous": false,
      "inputs": [
        {
          "indexed": true,
          "internalType": "address",
          "name": "owner",
          "type": "address"
        },
        {
          "indexed": true,
          "internalType": "address",
          "name": "operator",
          "type": "address"
        },
        {
          "indexed": false,
          "internalType": "bool",
          "name": "approved",
          "type": "bool"
        }
      ],
      "name": "ApprovalForAll",
      "type": "event"
    },
    {
      "anonymous": false,
      "inputs": [
        {
          "indexed": true,
          "internalType": "address",
          "name": "previousOwner",
          "type": "address"
        },
        {
          "indexed": true,
          "internalType": "address",
          "name": "newOwner",
          "type": "address"
        }
      ],
      "name": "OwnershipTransferred",
      "type": "event"
    },
    {
      "anonymous": false,
      "inputs": [
        {
          "indexed": false,
          "internalType": "uint256",
          "name": "tokenId",
          "type": "uint256"
        },
        {
          "components": [
            {
              "internalType": "address payable",
              "name": "account",
              "type": "address"
            },
            {
              "internalType": "uint96",
              "name": "value",
              "type": "uint96"
            }
          ],
          "indexed": false,
          "internalType": "struct LibPart.Part[]",
          "name": "Royalties",
          "type": "tuple[]"
        }
      ],
      "name": "RoyaltiesSet",
      "type": "event"
    },
    {
      "anonymous": false,
      "inputs": [
        {
          "indexed": true,
          "internalType": "address",
          "name": "from",
          "type": "address"
        },
        {
          "indexed": true,
          "internalType": "address",
          "name": "to",
          "type": "address"
        },
        {
          "indexed": true,
          "internalType": "uint256",
          "name": "tokenId",
          "type": "uint256"
        }
      ],
      "name": "Transfer",
      "type": "event"
    },
    {
      "inputs": [
        {
          "internalType": "address",
          "name": "to",
          "type": "address"
        },
        {
          "internalType": "uint256",
          "name": "tokenId",
          "type": "uint256"
        }
      ],
      "name": "approve",
      "outputs": [],
      "stateMutability": "nonpayable",
      "type": "function"
    },
    {
      "inputs": [
        {
          "internalType": "address",
          "name": "owner",
          "type": "address"
        }
      ],
      "name": "balanceOf",
      "outputs": [
        {
          "internalType": "uint256",
          "name": "",
          "type": "uint256"
        }
      ],
      "stateMutability": "view",
      "type": "function"
    },
    {
      "inputs": [
        {
          "internalType": "uint256",
          "name": "tokenId",
          "type": "uint256"
        }
      ],
      "name": "getApproved",
      "outputs": [
        {
          "internalType": "address",
          "name": "",
          "type": "address"
        }
      ],
      "stateMutability": "view",
      "type": "function"
    },
    {
      "inputs": [
        {
          "internalType": "uint256",
          "name": "id",
          "type": "uint256"
        }
      ],
      "name": "getRaribleV2Royalties",
      "outputs": [
        {
          "components": [
            {
              "internalType": "address payable",
              "name": "account",
              "type": "address"
            },
            {
              "internalType": "uint96",
              "name": "value",
              "type": "uint96"
            }
          ],
          "internalType": "struct LibPart.Part[]",
          "name": "",
          "type": "tuple[]"
        }
      ],
      "stateMutability": "view",
      "type": "function"
    },
    {
      "inputs": [
        {
          "internalType": "address",
          "name": "owner",
          "type": "address"
        },
        {
          "internalType": "address",
          "name": "operator",
          "type": "address"
        }
      ],
      "name": "isApprovedForAll",
      "outputs": [
        {
          "internalType": "bool",
          "name": "",
          "type": "bool"
        }
      ],
      "stateMutability": "view",
      "type": "function"
    },
    {
      "inputs": [],
      "name": "name",
      "outputs": [
        {
          "internalType": "string",
          "name": "",
          "type": "string"
        }
      ],
      "stateMutability": "view",
      "type": "function"
    },
    {
      "inputs": [],
      "name": "owner",
      "outputs": [
        {
          "internalType": "address",
          "name": "",
          "type": "address"
        }
      ],
      "stateMutability": "view",
      "type": "function"
    },
    {
      "inputs": [
        {
          "internalType": "uint256",
          "name": "tokenId",
          "type": "uint256"
        }
      ],
      "name": "ownerOf",
      "outputs": [
        {
          "internalType": "address",
          "name": "",
          "type": "address"
        }
      ],
      "stateMutability": "view",
      "type": "function"
    },
    {
      "inputs": [],
      "name": "renounceOwnership",
      "outputs": [],
      "stateMutability": "nonpayable",
      "type": "function"
    },
    {
      "inputs": [
        {
          "internalType": "uint256",
          "name": "id",
          "type": "uint256"
        },
        {
          "internalType": "uint256",
          "name": "_salePrice",
          "type": "uint256"
        }
      ],
      "name": "royaltyInfo",
      "outputs": [
        {
          "internalType": "address",
          "name": "receiver",
          "type": "address"
        },
        {
          "internalType": "uint256",
          "name": "royaltyAmount",
          "type": "uint256"
        }
      ],
      "stateMutability": "view",
      "type": "function"
    },
    {
      "inputs": [
        {
          "internalType": "address",
          "name": "from",
          "type": "address"
        },
        {
          "internalType": "address",
          "name": "to",
          "type": "address"
        },
        {
          "internalType": "uint256",
          "name": "tokenId",
          "type": "uint256"
        }
      ],
      "name": "safeTransferFrom",
      "outputs": [],
      "stateMutability": "nonpayable",
      "type": "function"
    },
    {
      "inputs": [
        {
          "internalType": "address",
          "name": "from",
          "type": "address"
        },
        {
          "internalType": "address",
          "name": "to",
          "type": "address"
        },
        {
          "internalType": "uint256",
          "name": "tokenId",
          "type": "uint256"
        },
        {
          "internalType": "bytes",
          "name": "_data",
          "type": "bytes"
        }
      ],
      "name": "safeTransferFrom",
      "outputs": [],
      "stateMutability": "nonpayable",
      "type": "function"
    },
    {
      "inputs": [
        {
          "internalType": "address",
          "name": "operator",
          "type": "address"
        },
        {
          "internalType": "bool",
          "name": "approved",
          "type": "bool"
        }
      ],
      "name": "setApprovalForAll",
      "outputs": [],
      "stateMutability": "nonpayable",
      "type": "function"
    },
    {
      "inputs": [],
      "name": "symbol",
      "outputs": [
        {
          "internalType": "string",
          "name": "",
          "type": "string"
        }
      ],
      "stateMutability": "view",
      "type": "function"
    },
    {
      "inputs": [
        {
          "internalType": "uint256",
          "name": "tokenId",
          "type": "uint256"
        }
      ],
      "name": "tokenURI",
      "outputs": [
        {
          "internalType": "string",
          "name": "",
          "type": "string"
        }
      ],
      "stateMutability": "view",
      "type": "function"
    },
    {
      "inputs": [
        {
          "internalType": "address",
          "name": "from",
          "type": "address"
        },
        {
          "internalType": "address",
          "name": "to",
          "type": "address"
        },
        {
          "internalType": "uint256",
          "name": "tokenId",
          "type": "uint256"
        }
      ],
      "name": "transferFrom",
      "outputs": [],
      "stateMutability": "nonpayable",
      "type": "function"
    },
    {
      "inputs": [
        {
          "internalType": "address",
          "name": "newOwner",
          "type": "address"
        }
      ],
      "name": "transferOwnership",
      "outputs": [],
      "stateMutability": "nonpayable",
      "type": "function"
    },
    {
      "inputs": [
        {
          "internalType": "address",
          "name": "_to",
          "type": "address"
        }
      ],
      "name": "mint",
      "outputs": [],
      "stateMutability": "nonpayable",
      "type": "function"
    },
    {
      "inputs": [
        {
          "internalType": "uint256",
          "name": "_tokenId",
          "type": "uint256"
        },
        {
          "internalType": "address payable",
          "name": "_royaltiesRecipientAddress",
          "type": "address"
        },
        {
          "internalType": "uint96",
          "name": "_percentageBasisPoints",
          "type": "uint96"
        }
      ],
      "name": "setRoyalties",
      "outputs": [],
      "stateMutability": "nonpayable",
      "type": "function"
    },
    {
      "inputs": [
        {
          "internalType": "bytes4",
          "name": "interfaceId",
          "type": "bytes4"
        }
      ],
      "name": "supportsInterface",
      "outputs": [
        {
          "internalType": "bool",
          "name": "",
          "type": "bool"
        }
      ],
      "stateMutability": "view",
      "type": "function"
    }
  ],
  "bytecode": "0x60806040523480156200001157600080fd5b50604080518082018252600981526820b935b0aa37b5b2b760b91b60208083019182528351808501909452600584526441524b544b60d81b9084015281519192916200006091600091620000ef565b50805162000076906001906020840190620000ef565b505050620000936200008d6200009960201b60201c565b6200009d565b620001d2565b3390565b600680546001600160a01b038381166001600160a01b0319831681179093556040519116919082907f8be0079c531659141344cd1fd0a4f28419497f9722a3daafe3b4186f6b6457e090600090a35050565b828054620000fd9062000195565b90600052602060002090601f0160209004810192826200012157600085556200016c565b82601f106200013c57805160ff19168380011785556200016c565b828001600101855582156200016c579182015b828111156200016c5782518255916020019190600101906200014f565b506200017a9291506200017e565b5090565b5b808211156200017a57600081556001016200017f565b600181811c90821680620001aa57607f821691505b60208210811415620001cc57634e487b7160e01b600052602260045260246000fd5b50919050565b611c7b80620001e26000396000f3fe608060405234801561001057600080fd5b506004361061012c5760003560e01c806370a08231116100ad578063b88d4fde11610071578063b88d4fde14610294578063c87b56dd146102a7578063cad96cca146102ba578063e985e9c5146102da578063f2fde38b1461031657600080fd5b806370a082311461023f578063715018a6146102605780638da5cb5b1461026857806395d89b4114610279578063a22cb4651461028157600080fd5b806323b872dd116100f457806323b872dd146101c15780632a55205a146101d457806342842e0e146102065780636352211e146102195780636a6278421461022c57600080fd5b806301ffc9a71461013157806306fdde0314610159578063081812fc1461016e578063095ea7b314610199578063143094db146101ae575b600080fd5b61014461013f366004611800565b610329565b60405190151581526020015b60405180910390f35b61016161035b565b60405161015091906119c6565b61018161017c36600461183a565b6103ed565b6040516001600160a01b039091168152602001610150565b6101ac6101a73660046117d4565b610487565b005b6101ac6101bc366004611853565b61059d565b6101ac6101cf366004611680565b61067b565b6101e76101e23660046118a1565b6106ac565b604080516001600160a01b039093168352602083019190915201610150565b6101ac610214366004611680565b6107e5565b61018161022736600461183a565b610800565b6101ac61023a36600461162a565b610877565b61025261024d36600461162a565b6108c4565b604051908152602001610150565b6101ac61094b565b6006546001600160a01b0316610181565b610161610981565b6101ac61028f3660046117a1565b610990565b6101ac6102a23660046116c1565b61099f565b6101616102b536600461183a565b6109d1565b6102cd6102c836600461183a565b610ab9565b60405161015091906119b3565b6101446102e8366004611647565b6001600160a01b03918216600090815260056020908152604080832093909416825291909152205460ff1690565b6101ac61032436600461162a565b610b48565b60006001600160e01b0319821663656cb66560e11b141561034c57506001919050565b61035582610be0565b92915050565b60606000805461036a90611b58565b80601f016020809104026020016040519081016040528092919081815260200182805461039690611b58565b80156103e35780601f106103b8576101008083540402835291602001916103e3565b820191906000526020600020905b8154815290600101906020018083116103c657829003601f168201915b5050505050905090565b6000818152600260205260408120546001600160a01b031661046b5760405162461bcd60e51b815260206004820152602c60248201527f4552433732313a20617070726f76656420717565727920666f72206e6f6e657860448201526b34b9ba32b73a103a37b5b2b760a11b60648201526084015b60405180910390fd5b506000908152600460205260409020546001600160a01b031690565b600061049282610800565b9050806001600160a01b0316836001600160a01b031614156105005760405162461bcd60e51b815260206004820152602160248201527f4552433732313a20617070726f76616c20746f2063757272656e74206f776e656044820152603960f91b6064820152608401610462565b336001600160a01b038216148061051c575061051c81336102e8565b61058e5760405162461bcd60e51b815260206004820152603860248201527f4552433732313a20617070726f76652063616c6c6572206973206e6f74206f7760448201527f6e6572206e6f7220617070726f76656420666f7220616c6c00000000000000006064820152608401610462565b6105988383610c30565b505050565b6006546001600160a01b031633146105c75760405162461bcd60e51b815260040161046290611a2b565b604080516001808252818301909252600091816020015b60408051808201909152600080825260208201528152602001906001900390816105de579050509050818160008151811061061b5761061b611bee565b6020026020010151602001906001600160601b031690816001600160601b031681525050828160008151811061065357610653611bee565b60209081029190910101516001600160a01b0390911690526106758482610c9e565b50505050565b6106853382610eb9565b6106a15760405162461bcd60e51b815260040161046290611a60565b610598838383610fb0565b60008281526007602052604081205481906106cc575060009050806107de565b600084815260076020908152604080832080548251818502810185019093528083529192909190849084015b8282101561074757600084815260209081902060408051808201909152908401546001600160a01b0381168252600160a01b90046001600160601b0316818301528252600190920191016106f8565b5050505090508060008151811061076057610760611bee565b60209081029190910101515192506000805b82518110156107c15782818151811061078d5761078d611bee565b6020026020010151602001516001600160601b0316826107ad9190611aca565b9150806107b981611b93565b915050610772565b506127106107cf8683611af6565b6107d99190611ae2565b925050505b9250929050565b6105988383836040518060200160405280600081525061099f565b6000818152600260205260408120546001600160a01b0316806103555760405162461bcd60e51b815260206004820152602960248201527f4552433732313a206f776e657220717565727920666f72206e6f6e657869737460448201526832b73a103a37b5b2b760b91b6064820152608401610462565b6006546001600160a01b031633146108a15760405162461bcd60e51b815260040161046290611a2b565b6108b3816108ae60085490565b61114c565b6108c1600880546001019055565b50565b60006001600160a01b03821661092f5760405162461bcd60e51b815260206004820152602a60248201527f4552433732313a2062616c616e636520717565727920666f7220746865207a65604482015269726f206164647265737360b01b6064820152608401610462565b506001600160a01b031660009081526003602052604090205490565b6006546001600160a01b031633146109755760405162461bcd60e51b815260040161046290611a2b565b61097f600061128e565b565b60606001805461036a90611b58565b61099b3383836112e0565b5050565b6109a93383610eb9565b6109c55760405162461bcd60e51b815260040161046290611a60565b610675848484846113af565b6000818152600260205260409020546060906001600160a01b0316610a505760405162461bcd60e51b815260206004820152602f60248201527f4552433732314d657461646174613a2055524920717565727920666f72206e6f60448201526e3732bc34b9ba32b73a103a37b5b2b760891b6064820152608401610462565b6000610a6760408051602081019091526000815290565b90506000815111610a875760405180602001604052806000815250610ab2565b80610a91846113e2565b604051602001610aa2929190611947565b6040516020818303038152906040525b9392505050565b606060076000838152602001908152602001600020805480602002602001604051908101604052809291908181526020016000905b82821015610b3d57600084815260209081902060408051808201909152908401546001600160a01b0381168252600160a01b90046001600160601b031681830152825260019092019101610aee565b505050509050919050565b6006546001600160a01b03163314610b725760405162461bcd60e51b815260040161046290611a2b565b6001600160a01b038116610bd75760405162461bcd60e51b815260206004820152602660248201527f4f776e61626c653a206e6577206f776e657220697320746865207a65726f206160448201526564647265737360d01b6064820152608401610462565b6108c18161128e565b60006001600160e01b031982166380ac58cd60e01b1480610c1157506001600160e01b03198216635b5e139f60e01b145b8061035557506301ffc9a760e01b6001600160e01b0319831614610355565b600081815260046020526040902080546001600160a01b0319166001600160a01b0384169081179091558190610c6582610800565b6001600160a01b03167f8c5be1e5ebec7d5bd14f71427d1e84f3dd0314c0f7b2291e5b200ac8c7c3b92560405160405180910390a45050565b6000805b8251811015610e4f5760006001600160a01b0316838281518110610cc857610cc8611bee565b6020026020010151600001516001600160a01b03161415610d2b5760405162461bcd60e51b815260206004820152601b60248201527f526563697069656e742073686f756c642062652070726573656e7400000000006044820152606401610462565b828181518110610d3d57610d3d611bee565b6020026020010151602001516001600160601b031660001415610da25760405162461bcd60e51b815260206004820181905260248201527f526f79616c74792076616c75652073686f756c6420626520706f7369746976656044820152606401610462565b828181518110610db457610db4611bee565b6020026020010151602001516001600160601b031682610dd49190611aca565b915060076000858152602001908152602001600020838281518110610dfb57610dfb611bee565b6020908102919091018101518254600181018455600093845292829020815191909201516001600160601b0316600160a01b026001600160a01b039091161791015580610e4781611b93565b915050610ca2565b506127108110610eaf5760405162461bcd60e51b815260206004820152602560248201527f526f79616c747920746f74616c2076616c75652073686f756c64206265203c20604482015264031303030360dc1b6064820152608401610462565b61059883836114e0565b6000818152600260205260408120546001600160a01b0316610f325760405162461bcd60e51b815260206004820152602c60248201527f4552433732313a206f70657261746f7220717565727920666f72206e6f6e657860448201526b34b9ba32b73a103a37b5b2b760a11b6064820152608401610462565b6000610f3d83610800565b9050806001600160a01b0316846001600160a01b03161480610f785750836001600160a01b0316610f6d846103ed565b6001600160a01b0316145b80610fa857506001600160a01b0380821660009081526005602090815260408083209388168352929052205460ff165b949350505050565b826001600160a01b0316610fc382610800565b6001600160a01b0316146110275760405162461bcd60e51b815260206004820152602560248201527f4552433732313a207472616e736665722066726f6d20696e636f72726563742060448201526437bbb732b960d91b6064820152608401610462565b6001600160a01b0382166110895760405162461bcd60e51b8152602060048201526024808201527f4552433732313a207472616e7366657220746f20746865207a65726f206164646044820152637265737360e01b6064820152608401610462565b611094600082610c30565b6001600160a01b03831660009081526003602052604081208054600192906110bd908490611b15565b90915550506001600160a01b03821660009081526003602052604081208054600192906110eb908490611aca565b909155505060008181526002602052604080822080546001600160a01b0319166001600160a01b0386811691821790925591518493918716917fddf252ad1be2c89b69c2b068fc378daa952ba7f163c4a11628f55a4df523b3ef91a4505050565b6001600160a01b0382166111a25760405162461bcd60e51b815260206004820181905260248201527f4552433732313a206d696e7420746f20746865207a65726f20616464726573736044820152606401610462565b6000818152600260205260409020546001600160a01b0316156112075760405162461bcd60e51b815260206004820152601c60248201527f4552433732313a20746f6b656e20616c7265616479206d696e746564000000006044820152606401610462565b6001600160a01b0382166000908152600360205260408120805460019290611230908490611aca565b909155505060008181526002602052604080822080546001600160a01b0319166001600160a01b03861690811790915590518392907fddf252ad1be2c89b69c2b068fc378daa952ba7f163c4a11628f55a4df523b3ef908290a45050565b600680546001600160a01b038381166001600160a01b0319831681179093556040519116919082907f8be0079c531659141344cd1fd0a4f28419497f9722a3daafe3b4186f6b6457e090600090a35050565b816001600160a01b0316836001600160a01b031614156113425760405162461bcd60e51b815260206004820152601960248201527f4552433732313a20617070726f766520746f2063616c6c6572000000000000006044820152606401610462565b6001600160a01b03838116600081815260056020908152604080832094871680845294825291829020805460ff191686151590811790915591519182527f17307eab39ab6107e8899845ad3d59bd9653f200f220920489ca2b5937696c31910160405180910390a3505050565b6113ba848484610fb0565b6113c68484848461151d565b6106755760405162461bcd60e51b8152600401610462906119d9565b6060816114065750506040805180820190915260018152600360fc1b602082015290565b8160005b8115611430578061141a81611b93565b91506114299050600a83611ae2565b915061140a565b60008167ffffffffffffffff81111561144b5761144b611c04565b6040519080825280601f01601f191660200182016040528015611475576020820181803683370190505b5090505b8415610fa85761148a600183611b15565b9150611497600a86611bae565b6114a2906030611aca565b60f81b8183815181106114b7576114b7611bee565b60200101906001600160f81b031916908160001a9053506114d9600a86611ae2565b9450611479565b7f3fa96d7b6bcbfe71ef171666d84db3cf52fa2d1c8afdb1cc8e486177f208b7df8282604051611511929190611ab1565b60405180910390a15050565b60006001600160a01b0384163b1561161f57604051630a85bd0160e11b81526001600160a01b0385169063150b7a0290611561903390899088908890600401611976565b602060405180830381600087803b15801561157b57600080fd5b505af19250505080156115ab575060408051601f3d908101601f191682019092526115a89181019061181d565b60015b611605573d8080156115d9576040519150601f19603f3d011682016040523d82523d6000602084013e6115de565b606091505b5080516115fd5760405162461bcd60e51b8152600401610462906119d9565b805181602001fd5b6001600160e01b031916630a85bd0160e11b149050610fa8565b506001949350505050565b60006020828403121561163c57600080fd5b8135610ab281611c1a565b6000806040838503121561165a57600080fd5b823561166581611c1a565b9150602083013561167581611c1a565b809150509250929050565b60008060006060848603121561169557600080fd5b83356116a081611c1a565b925060208401356116b081611c1a565b929592945050506040919091013590565b600080600080608085870312156116d757600080fd5b84356116e281611c1a565b935060208501356116f281611c1a565b925060408501359150606085013567ffffffffffffffff8082111561171657600080fd5b818701915087601f83011261172a57600080fd5b81358181111561173c5761173c611c04565b604051601f8201601f19908116603f0116810190838211818310171561176457611764611c04565b816040528281528a602084870101111561177d57600080fd5b82602086016020830137600060208483010152809550505050505092959194509250565b600080604083850312156117b457600080fd5b82356117bf81611c1a565b91506020830135801515811461167557600080fd5b600080604083850312156117e757600080fd5b82356117f281611c1a565b946020939093013593505050565b60006020828403121561181257600080fd5b8135610ab281611c2f565b60006020828403121561182f57600080fd5b8151610ab281611c2f565b60006020828403121561184c57600080fd5b5035919050565b60008060006060848603121561186857600080fd5b83359250602084013561187a81611c1a565b915060408401356001600160601b038116811461189657600080fd5b809150509250925092565b600080604083850312156118b457600080fd5b50508035926020909101359150565b600081518084526020808501945080840160005b8381101561191057815180516001600160a01b031688528301516001600160601b031683880152604090960195908201906001016118d7565b509495945050505050565b60008151808452611933816020860160208601611b2c565b601f01601f19169290920160200192915050565b60008351611959818460208801611b2c565b83519083019061196d818360208801611b2c565b01949350505050565b6001600160a01b03858116825284166020820152604081018390526080606082018190526000906119a99083018461191b565b9695505050505050565b602081526000610ab260208301846118c3565b602081526000610ab2602083018461191b565b60208082526032908201527f4552433732313a207472616e7366657220746f206e6f6e20455243373231526560408201527131b2b4bb32b91034b6b83632b6b2b73a32b960711b606082015260800190565b6020808252818101527f4f776e61626c653a2063616c6c6572206973206e6f7420746865206f776e6572604082015260600190565b60208082526031908201527f4552433732313a207472616e736665722063616c6c6572206973206e6f74206f6040820152701ddb995c881b9bdc88185c1c1c9bdd9959607a1b606082015260800190565b828152604060208201526000610fa860408301846118c3565b60008219821115611add57611add611bc2565b500190565b600082611af157611af1611bd8565b500490565b6000816000190483118215151615611b1057611b10611bc2565b500290565b600082821015611b2757611b27611bc2565b500390565b60005b83811015611b47578181015183820152602001611b2f565b838111156106755750506000910152565b600181811c90821680611b6c57607f821691505b60208210811415611b8d57634e487b7160e01b600052602260045260246000fd5b50919050565b6000600019821415611ba757611ba7611bc2565b5060010190565b600082611bbd57611bbd611bd8565b500690565b634e487b7160e01b600052601160045260246000fd5b634e487b7160e01b600052601260045260246000fd5b634e487b7160e01b600052603260045260246000fd5b634e487b7160e01b600052604160045260246000fd5b6001600160a01b03811681146108c157600080fd5b6001600160e01b0319811681146108c157600080fdfea264697066735822122088890a593cde33bba87fbae8a41a1e30b56ee8861e3561713f08a72e0ce6d8e264736f6c63430008060033",
  "immutableReferences": {},
  "source": "//SPDX-License-Identifier MIT\r\n\r\npragma solidity ^0.8.0;\r\n\r\n\r\nimport \"@openzeppelin/contracts/token/ERC721/ERC721.sol\";\r\nimport \"@openzeppelin/contracts/access/Ownable.sol\";\r\nimport \"@openzeppelin/contracts/utils/Counters.sol\";\r\n\r\nimport \"./@rarible/royalties/contracts/impl/RoyaltiesV2Impl.sol\";\r\nimport \"./@rarible/royalties/contracts/LibPart.sol\";\r\nimport \"./@rarible/royalties/contracts/LibRoyaltiesV2.sol\";\r\n\r\n\r\n\r\ncontract ERC721Arkania is ERC721, Ownable, RoyaltiesV2Impl {\r\n\r\n    using Counters for Counters.Counter;\r\n    Counters.Counter private _tokenIdTracker;\r\n\r\n    constructor () ERC721(\"ArkaToken\",\"ARKTK\"){\r\n\r\n    }\r\n\r\n    function mint(address _to) public onlyOwner {\r\n        super._mint(_to, _tokenIdTracker.current());\r\n        _tokenIdTracker.increment();\r\n    }\r\n\r\n    function setRoyalties(uint _tokenId, address payable _royaltiesRecipientAddress, uint96 _percentageBasisPoints) public onlyOwner {\r\n        LibPart.Part[] memory _royalties = new LibPart.Part[](1);\r\n        _royalties[0].value = _percentageBasisPoints;\r\n        _royalties[0].account = _royaltiesRecipientAddress;\r\n        _saveRoyalties(_tokenId, _royalties);\r\n\r\n    }\r\n\r\n    function supportsInterface(bytes4 interfaceId) public view virtual override(ERC721) returns (bool){\r\n        if(interfaceId == LibRoyaltiesV2._INTERFACE_ID_ROYALTIES){\r\n            return true;\r\n        }\r\n        return super.supportsInterface(interfaceId);\r\n    }\r\n}",
  "sourcePath": "C:\\Users\\KevinDell'ova\\Desktop\\Arkania\\contracts\\Arkania.sol",
  "compiler": {
    "name": "solc",
    "version": "0.8.6+commit.11564f7e.Emscripten.clang"
  },
  "schemaVersion": "3.4.4",
  "updatedAt": "2022-02-26T21:07:29.770Z",
  "devdoc": {
    "kind": "dev",
    "methods": {
      "approve(address,uint256)": {
        "details": "See {IERC721-approve}."
      },
      "balanceOf(address)": {
        "details": "See {IERC721-balanceOf}."
      },
      "getApproved(uint256)": {
        "details": "See {IERC721-getApproved}."
      },
      "isApprovedForAll(address,address)": {
        "details": "See {IERC721-isApprovedForAll}."
      },
      "name()": {
        "details": "See {IERC721Metadata-name}."
      },
      "owner()": {
        "details": "Returns the address of the current owner."
      },
      "ownerOf(uint256)": {
        "details": "See {IERC721-ownerOf}."
      },
      "renounceOwnership()": {
        "details": "Leaves the contract without owner. It will not be possible to call `onlyOwner` functions anymore. Can only be called by the current owner. NOTE: Renouncing ownership will leave the contract without an owner, thereby removing any functionality that is only available to the owner."
      },
      "safeTransferFrom(address,address,uint256)": {
        "details": "See {IERC721-safeTransferFrom}."
      },
      "safeTransferFrom(address,address,uint256,bytes)": {
        "details": "See {IERC721-safeTransferFrom}."
      },
      "setApprovalForAll(address,bool)": {
        "details": "See {IERC721-setApprovalForAll}."
      },
      "supportsInterface(bytes4)": {
        "details": "See {IERC165-supportsInterface}."
      },
      "symbol()": {
        "details": "See {IERC721Metadata-symbol}."
      },
      "tokenURI(uint256)": {
        "details": "See {IERC721Metadata-tokenURI}."
      },
      "transferFrom(address,address,uint256)": {
        "details": "See {IERC721-transferFrom}."
      },
      "transferOwnership(address)": {
        "details": "Transfers ownership of the contract to a new account (`newOwner`). Can only be called by the current owner."
      }
    },
    "version": 1
  },
  "userdoc": {
    "kind": "user",
    "methods": {},
    "version": 1
  }
}