{
  "contractName": "LibPart",
  "abi": [
    {
      "inputs": [],
      "name": "TYPE_HASH",
      "outputs": [
        {
          "internalType": "bytes32",
          "name": "",
          "type": "bytes32"
        }
      ],
      "stateMutability": "view",
      "type": "function"
    }
  ],
  "bytecode": "0x60a6610038600b82828239805160001a607314602b57634e487b7160e01b600052600060045260246000fd5b30600052607381538281f3fe730000000000000000000000000000000000000000301460806040526004361060335760003560e01c806364d4c819146038575b600080fd5b605e7f397e04204c1e1a60ee8724b71f8244e10ab5f2e9009854d80f602bda21b59ebb81565b60405190815260200160405180910390f3fea26469706673582212203a5d65ac4925ce07cbc647fb969ad73e21740121982bad90d2777f2609e07cca64736f6c63430008060033",
  "immutableReferences": {},
  "source": "// SPDX-License-Identifier: MIT\r\n\r\npragma solidity ^0.8.0;\r\n\r\nlibrary LibPart {\r\n    bytes32 public constant TYPE_HASH = keccak256(\"Part(address account,uint96 value)\");\r\n\r\n    struct Part {\r\n        address payable account;\r\n        uint96 value;\r\n    }\r\n\r\n    function hash(Part memory part) internal pure returns (bytes32) {\r\n        return keccak256(abi.encode(TYPE_HASH, part.account, part.value));\r\n    }\r\n}",
  "sourcePath": "C:\\Users\\KevinDell'ova\\Desktop\\Arkania\\contracts\\@rarible\\royalties\\contracts\\LibPart.sol",
  "compiler": {
    "name": "solc",
    "version": "0.8.6+commit.11564f7e.Emscripten.clang"
  },
  "schemaVersion": "3.4.4",
  "updatedAt": "2022-02-26T21:07:29.747Z",
  "devdoc": {
    "kind": "dev",
    "methods": {},
    "version": 1
  },
  "userdoc": {
    "kind": "user",
    "methods": {},
    "version": 1
  }
}