{
  "contractName": "RoyaltiesV2Impl",
  "abi": [
    {
      "anonymous": false,
      "inputs": [
        {
          "indexed": false,
          "internalType": "uint256",
          "name": "tokenId",
          "type": "uint256"
        },
        {
          "components": [
            {
              "internalType": "address payable",
              "name": "account",
              "type": "address"
            },
            {
              "internalType": "uint96",
              "name": "value",
              "type": "uint96"
            }
          ],
          "indexed": false,
          "internalType": "struct LibPart.Part[]",
          "name": "Royalties",
          "type": "tuple[]"
        }
      ],
      "name": "RoyaltiesSet",
      "type": "event"
    },
    {
      "inputs": [
        {
          "internalType": "uint256",
          "name": "id",
          "type": "uint256"
        }
      ],
      "name": "getRaribleV2Royalties",
      "outputs": [
        {
          "components": [
            {
              "internalType": "address payable",
              "name": "account",
              "type": "address"
            },
            {
              "internalType": "uint96",
              "name": "value",
              "type": "uint96"
            }
          ],
          "internalType": "struct LibPart.Part[]",
          "name": "",
          "type": "tuple[]"
        }
      ],
      "stateMutability": "view",
      "type": "function"
    },
    {
      "inputs": [
        {
          "internalType": "uint256",
          "name": "id",
          "type": "uint256"
        },
        {
          "internalType": "uint256",
          "name": "_salePrice",
          "type": "uint256"
        }
      ],
      "name": "royaltyInfo",
      "outputs": [
        {
          "internalType": "address",
          "name": "receiver",
          "type": "address"
        },
        {
          "internalType": "uint256",
          "name": "royaltyAmount",
          "type": "uint256"
        }
      ],
      "stateMutability": "view",
      "type": "function"
    }
  ],
  "bytecode": "0x608060405234801561001057600080fd5b506103c1806100206000396000f3fe608060405234801561001057600080fd5b50600436106100365760003560e01c80632a55205a1461003b578063cad96cca14610072575b600080fd5b61004e610049366004610268565b610092565b604080516001600160a01b0390931683526020830191909152015b60405180910390f35b61008561008036600461024f565b6101c9565b604051610069919061028a565b60008281526020819052604081205481906100b2575060009050806101c2565b60008481526020818152604080832080548251818502810185019093528083529192909190849084015b8282101561012b57600084815260209081902060408051808201909152908401546001600160a01b0381168252600160a01b90046001600160601b0316818301528252600190920191016100dc565b5050505090508060008151811061014457610144610375565b60209081029190910101515192506000805b82518110156101a55782818151811061017157610171610375565b6020026020010151602001516001600160601b03168261019191906102eb565b91508061019d81610344565b915050610156565b506127106101b38683610325565b6101bd9190610303565b925050505b9250929050565b600081815260208181526040808320805482518185028101850190935280835260609492939192909184015b8282101561024457600084815260209081902060408051808201909152908401546001600160a01b0381168252600160a01b90046001600160601b0316818301528252600190920191016101f5565b505050509050919050565b60006020828403121561026157600080fd5b5035919050565b6000806040838503121561027b57600080fd5b50508035926020909101359150565b602080825282518282018190526000919060409081850190868401855b828110156102de57815180516001600160a01b031685528601516001600160601b03168685015292840192908501906001016102a7565b5091979650505050505050565b600082198211156102fe576102fe61035f565b500190565b60008261032057634e487b7160e01b600052601260045260246000fd5b500490565b600081600019048311821515161561033f5761033f61035f565b500290565b60006000198214156103585761035861035f565b5060010190565b634e487b7160e01b600052601160045260246000fd5b634e487b7160e01b600052603260045260246000fdfea2646970667358221220addd6a3ead6dd96d8022d1e145142d2e2c8156670099dddb2a02f191e182ec1464736f6c63430008060033",
  "immutableReferences": {},
  "source": "// SPDX-License-Identifier: MIT\r\n\r\npragma solidity ^0.8.0;\r\n//pragma abicoder v2;\r\n\r\nimport \"./AbstractRoyalties.sol\";\r\nimport \"../RoyaltiesV2.sol\";\r\nimport \"../IERC2981.sol\";\r\nimport \"../LibRoyalties2981.sol\";\r\n\r\ncontract RoyaltiesV2Impl is AbstractRoyalties, RoyaltiesV2, IERC2981 {\r\n\r\n    function getRaribleV2Royalties(uint256 id) override external view returns (LibPart.Part[] memory) {\r\n        return royalties[id];\r\n    }\r\n\r\n    function _onRoyaltiesSet(uint256 id, LibPart.Part[] memory _royalties) override internal {\r\n        emit RoyaltiesSet(id, _royalties);\r\n    }\r\n\r\n    /*\r\n    *Token (ERC721, ERC721Minimal, ERC721MinimalMeta, ERC1155 ) can have a number of different royalties beneficiaries\r\n    *calculate sum all royalties, but royalties beneficiary will be only one royalties[0].account, according to rules of IERC2981\r\n    */\r\n    function royaltyInfo(uint256 id, uint256 _salePrice) override external view returns (address receiver, uint256 royaltyAmount) {\r\n        if (royalties[id].length == 0) {\r\n            receiver = address(0);\r\n            royaltyAmount = 0;\r\n            return(receiver, royaltyAmount);\r\n        }\r\n        LibPart.Part[] memory _royalties = royalties[id];\r\n        receiver = _royalties[0].account;\r\n        uint percent;\r\n        for (uint i = 0; i < _royalties.length; i++) {\r\n            percent += _royalties[i].value;\r\n        }\r\n        //don`t need require(percent < 10000, \"Token royalty > 100%\"); here, because check later in calculateRoyalties\r\n        royaltyAmount = percent * _salePrice / 10000;\r\n    }\r\n}",
  "sourcePath": "C:\\Users\\KevinDell'ova\\Desktop\\Arkania\\contracts\\@rarible\\royalties\\contracts\\impl\\RoyaltiesV2Impl.sol",
  "compiler": {
    "name": "solc",
    "version": "0.8.6+commit.11564f7e.Emscripten.clang"
  },
  "schemaVersion": "3.4.4",
  "updatedAt": "2022-02-26T21:07:29.762Z",
  "devdoc": {
    "kind": "dev",
    "methods": {},
    "version": 1
  },
  "userdoc": {
    "kind": "user",
    "methods": {},
    "version": 1
  }
}