{
  "contractName": "TokenArkania",
  "abi": [
    {
      "inputs": [
        {
          "internalType": "string",
          "name": "name",
          "type": "string"
        },
        {
          "internalType": "string",
          "name": "symbol",
          "type": "string"
        },
        {
          "internalType": "string",
          "name": "_initBaseURI",
          "type": "string"
        }
      ],
      "stateMutability": "nonpayable",
      "type": "constructor"
    },
    {
      "anonymous": false,
      "inputs": [
        {
          "indexed": true,
          "internalType": "address",
          "name": "owner",
          "type": "address"
        },
        {
          "indexed": true,
          "internalType": "address",
          "name": "approved",
          "type": "address"
        },
        {
          "indexed": true,
          "internalType": "uint256",
          "name": "tokenId",
          "type": "uint256"
        }
      ],
      "name": "Approval",
      "type": "event"
    },
    {
      "anonymous": false,
      "inputs": [
        {
          "indexed": true,
          "internalType": "address",
          "name": "owner",
          "type": "address"
        },
        {
          "indexed": true,
          "internalType": "address",
          "name": "operator",
          "type": "address"
        },
        {
          "indexed": false,
          "internalType": "bool",
          "name": "approved",
          "type": "bool"
        }
      ],
      "name": "ApprovalForAll",
      "type": "event"
    },
    {
      "anonymous": false,
      "inputs": [
        {
          "indexed": true,
          "internalType": "address",
          "name": "previousOwner",
          "type": "address"
        },
        {
          "indexed": true,
          "internalType": "address",
          "name": "newOwner",
          "type": "address"
        }
      ],
      "name": "OwnershipTransferred",
      "type": "event"
    },
    {
      "anonymous": false,
      "inputs": [
        {
          "indexed": true,
          "internalType": "address",
          "name": "from",
          "type": "address"
        },
        {
          "indexed": true,
          "internalType": "address",
          "name": "to",
          "type": "address"
        },
        {
          "indexed": true,
          "internalType": "uint256",
          "name": "tokenId",
          "type": "uint256"
        }
      ],
      "name": "Transfer",
      "type": "event"
    },
    {
      "inputs": [
        {
          "internalType": "address",
          "name": "to",
          "type": "address"
        },
        {
          "internalType": "uint256",
          "name": "tokenId",
          "type": "uint256"
        }
      ],
      "name": "approve",
      "outputs": [],
      "stateMutability": "nonpayable",
      "type": "function"
    },
    {
      "inputs": [
        {
          "internalType": "address",
          "name": "owner",
          "type": "address"
        }
      ],
      "name": "balanceOf",
      "outputs": [
        {
          "internalType": "uint256",
          "name": "",
          "type": "uint256"
        }
      ],
      "stateMutability": "view",
      "type": "function",
      "constant": true
    },
    {
      "inputs": [],
      "name": "baseExtension",
      "outputs": [
        {
          "internalType": "string",
          "name": "",
          "type": "string"
        }
      ],
      "stateMutability": "view",
      "type": "function",
      "constant": true
    },
    {
      "inputs": [],
      "name": "baseURI",
      "outputs": [
        {
          "internalType": "string",
          "name": "",
          "type": "string"
        }
      ],
      "stateMutability": "view",
      "type": "function",
      "constant": true
    },
    {
      "inputs": [
        {
          "internalType": "uint256",
          "name": "tokenId",
          "type": "uint256"
        }
      ],
      "name": "getApproved",
      "outputs": [
        {
          "internalType": "address",
          "name": "",
          "type": "address"
        }
      ],
      "stateMutability": "view",
      "type": "function",
      "constant": true
    },
    {
      "inputs": [
        {
          "internalType": "address",
          "name": "owner",
          "type": "address"
        },
        {
          "internalType": "address",
          "name": "operator",
          "type": "address"
        }
      ],
      "name": "isApprovedForAll",
      "outputs": [
        {
          "internalType": "bool",
          "name": "",
          "type": "bool"
        }
      ],
      "stateMutability": "view",
      "type": "function",
      "constant": true
    },
    {
      "inputs": [],
      "name": "name",
      "outputs": [
        {
          "internalType": "string",
          "name": "",
          "type": "string"
        }
      ],
      "stateMutability": "view",
      "type": "function",
      "constant": true
    },
    {
      "inputs": [],
      "name": "owner",
      "outputs": [
        {
          "internalType": "address",
          "name": "",
          "type": "address"
        }
      ],
      "stateMutability": "view",
      "type": "function",
      "constant": true
    },
    {
      "inputs": [
        {
          "internalType": "uint256",
          "name": "tokenId",
          "type": "uint256"
        }
      ],
      "name": "ownerOf",
      "outputs": [
        {
          "internalType": "address",
          "name": "",
          "type": "address"
        }
      ],
      "stateMutability": "view",
      "type": "function",
      "constant": true
    },
    {
      "inputs": [],
      "name": "paused",
      "outputs": [
        {
          "internalType": "bool",
          "name": "",
          "type": "bool"
        }
      ],
      "stateMutability": "view",
      "type": "function",
      "constant": true
    },
    {
      "inputs": [],
      "name": "renounceOwnership",
      "outputs": [],
      "stateMutability": "nonpayable",
      "type": "function"
    },
    {
      "inputs": [
        {
          "internalType": "address",
          "name": "from",
          "type": "address"
        },
        {
          "internalType": "address",
          "name": "to",
          "type": "address"
        },
        {
          "internalType": "uint256",
          "name": "tokenId",
          "type": "uint256"
        }
      ],
      "name": "safeTransferFrom",
      "outputs": [],
      "stateMutability": "nonpayable",
      "type": "function"
    },
    {
      "inputs": [
        {
          "internalType": "address",
          "name": "from",
          "type": "address"
        },
        {
          "internalType": "address",
          "name": "to",
          "type": "address"
        },
        {
          "internalType": "uint256",
          "name": "tokenId",
          "type": "uint256"
        },
        {
          "internalType": "bytes",
          "name": "_data",
          "type": "bytes"
        }
      ],
      "name": "safeTransferFrom",
      "outputs": [],
      "stateMutability": "nonpayable",
      "type": "function"
    },
    {
      "inputs": [
        {
          "internalType": "address",
          "name": "operator",
          "type": "address"
        },
        {
          "internalType": "bool",
          "name": "approved",
          "type": "bool"
        }
      ],
      "name": "setApprovalForAll",
      "outputs": [],
      "stateMutability": "nonpayable",
      "type": "function"
    },
    {
      "inputs": [
        {
          "internalType": "bytes4",
          "name": "interfaceId",
          "type": "bytes4"
        }
      ],
      "name": "supportsInterface",
      "outputs": [
        {
          "internalType": "bool",
          "name": "",
          "type": "bool"
        }
      ],
      "stateMutability": "view",
      "type": "function",
      "constant": true
    },
    {
      "inputs": [],
      "name": "symbol",
      "outputs": [
        {
          "internalType": "string",
          "name": "",
          "type": "string"
        }
      ],
      "stateMutability": "view",
      "type": "function",
      "constant": true
    },
    {
      "inputs": [
        {
          "internalType": "uint256",
          "name": "index",
          "type": "uint256"
        }
      ],
      "name": "tokenByIndex",
      "outputs": [
        {
          "internalType": "uint256",
          "name": "",
          "type": "uint256"
        }
      ],
      "stateMutability": "view",
      "type": "function",
      "constant": true
    },
    {
      "inputs": [
        {
          "internalType": "address",
          "name": "owner",
          "type": "address"
        },
        {
          "internalType": "uint256",
          "name": "index",
          "type": "uint256"
        }
      ],
      "name": "tokenOfOwnerByIndex",
      "outputs": [
        {
          "internalType": "uint256",
          "name": "",
          "type": "uint256"
        }
      ],
      "stateMutability": "view",
      "type": "function",
      "constant": true
    },
    {
      "inputs": [],
      "name": "totalSupply",
      "outputs": [
        {
          "internalType": "uint256",
          "name": "",
          "type": "uint256"
        }
      ],
      "stateMutability": "view",
      "type": "function",
      "constant": true
    },
    {
      "inputs": [
        {
          "internalType": "address",
          "name": "from",
          "type": "address"
        },
        {
          "internalType": "address",
          "name": "to",
          "type": "address"
        },
        {
          "internalType": "uint256",
          "name": "tokenId",
          "type": "uint256"
        }
      ],
      "name": "transferFrom",
      "outputs": [],
      "stateMutability": "nonpayable",
      "type": "function"
    },
    {
      "inputs": [
        {
          "internalType": "address",
          "name": "newOwner",
          "type": "address"
        }
      ],
      "name": "transferOwnership",
      "outputs": [],
      "stateMutability": "nonpayable",
      "type": "function"
    },
    {
      "inputs": [
        {
          "internalType": "string",
          "name": "_newBaseURI",
          "type": "string"
        }
      ],
      "name": "setBaseURI",
      "outputs": [],
      "stateMutability": "nonpayable",
      "type": "function"
    },
    {
      "inputs": [
        {
          "internalType": "uint256",
          "name": "tokenId",
          "type": "uint256"
        }
      ],
      "name": "tokenURI",
      "outputs": [
        {
          "internalType": "string",
          "name": "",
          "type": "string"
        }
      ],
      "stateMutability": "view",
      "type": "function",
      "constant": true
    },
    {
      "inputs": [
        {
          "internalType": "bool",
          "name": "_state",
          "type": "bool"
        }
      ],
      "name": "pause",
      "outputs": [],
      "stateMutability": "nonpayable",
      "type": "function"
    },
    {
      "inputs": [
        {
          "internalType": "address",
          "name": "sender",
          "type": "address"
        },
        {
          "internalType": "uint8[]",
          "name": "params8",
          "type": "uint8[]"
        },
        {
          "internalType": "uint256[]",
          "name": "params256",
          "type": "uint256[]"
        }
      ],
      "name": "mint",
      "outputs": [],
      "stateMutability": "nonpayable",
      "type": "function"
    },
    {
      "inputs": [
        {
          "internalType": "address",
          "name": "from",
          "type": "address"
        },
        {
          "internalType": "address",
          "name": "to",
          "type": "address"
        },
        {
          "internalType": "uint256",
          "name": "tokenId",
          "type": "uint256"
        }
      ],
      "name": "transfer",
      "outputs": [],
      "stateMutability": "nonpayable",
      "type": "function"
    },
    {
      "inputs": [
        {
          "internalType": "string",
          "name": "keyParams",
          "type": "string"
        },
        {
          "internalType": "uint256",
          "name": "valueParams",
          "type": "uint256"
        }
      ],
      "name": "setParamsContract",
      "outputs": [],
      "stateMutability": "nonpayable",
      "type": "function"
    },
    {
      "inputs": [
        {
          "internalType": "string",
          "name": "keyParams",
          "type": "string"
        }
      ],
      "name": "getParamsContract",
      "outputs": [
        {
          "internalType": "uint256",
          "name": "",
          "type": "uint256"
        }
      ],
      "stateMutability": "view",
      "type": "function",
      "constant": true
    },
    {
      "inputs": [
        {
          "internalType": "address",
          "name": "_adress",
          "type": "address"
        }
      ],
      "name": "setAdressDelegateContract",
      "outputs": [],
      "stateMutability": "nonpayable",
      "type": "function"
    },
    {
      "inputs": [],
      "name": "getAdressDelegateContract",
      "outputs": [
        {
          "internalType": "address",
          "name": "",
          "type": "address"
        }
      ],
      "stateMutability": "view",
      "type": "function",
      "constant": true
    },
    {
      "inputs": [
        {
          "internalType": "uint256",
          "name": "tokenId",
          "type": "uint256"
        }
      ],
      "name": "getTokenDetails",
      "outputs": [
        {
          "components": [
            {
              "internalType": "uint8[]",
              "name": "params8",
              "type": "uint8[]"
            },
            {
              "internalType": "uint256[]",
              "name": "params256",
              "type": "uint256[]"
            }
          ],
          "internalType": "struct TokenArkania.Token",
          "name": "",
          "type": "tuple"
        }
      ],
      "stateMutability": "view",
      "type": "function",
      "constant": true
    },
    {
      "inputs": [
        {
          "internalType": "address",
          "name": "user",
          "type": "address"
        }
      ],
      "name": "getAllTokensForUser",
      "outputs": [
        {
          "internalType": "uint256[]",
          "name": "",
          "type": "uint256[]"
        }
      ],
      "stateMutability": "view",
      "type": "function",
      "constant": true
    },
    {
      "inputs": [
        {
          "internalType": "uint256",
          "name": "tokenId",
          "type": "uint256"
        }
      ],
      "name": "getOwnerOf",
      "outputs": [
        {
          "internalType": "address",
          "name": "",
          "type": "address"
        }
      ],
      "stateMutability": "view",
      "type": "function",
      "constant": true
    },
    {
      "inputs": [
        {
          "components": [
            {
              "internalType": "uint8[]",
              "name": "params8",
              "type": "uint8[]"
            },
            {
              "internalType": "uint256[]",
              "name": "params256",
              "type": "uint256[]"
            }
          ],
          "internalType": "struct TokenArkania.Token",
          "name": "_token",
          "type": "tuple"
        },
        {
          "internalType": "uint256",
          "name": "tokenId",
          "type": "uint256"
        },
        {
          "internalType": "address",
          "name": "owner",
          "type": "address"
        }
      ],
      "name": "updateToken",
      "outputs": [],
      "stateMutability": "nonpayable",
      "type": "function"
    },
    {
      "inputs": [
        {
          "internalType": "uint256",
          "name": "tokenId",
          "type": "uint256"
        }
      ],
      "name": "burn",
      "outputs": [],
      "stateMutability": "nonpayable",
      "type": "function"
    }
  ],
  "bytecode": "0x60c06040526005608081905264173539b7b760d91b60a09081526200002891600f919062000c45565b506010805460ff191690553480156200004057600080fd5b506040516200522438038062005224833981016040819052620000639162000ea2565b8251839083906200007c90600090602085019062000c45565b5080516200009290600190602084019062000c45565b505050620000af620000a9620002a460201b60201c565b620002a8565b620000ba81620002fa565b600030604051620000cb9062000cd4565b6001600160a01b039091168152602001604051809103906000f080158015620000f8573d6000803e3d6000fd5b5060108054610100600160a81b0319166101006001600160a01b0384160217905560408051600a8082526101608201909252919250600091906020820161014080368337505060408051600a80825261016082019092529293506000929150602082016101408036833701905050905042816000815181106200017f576200017f6200107d565b60200260200101818152505060005b600a8160ff1610156200029757604051806040016040528084815260200183815250600d6000620001cb600b6200037360201b6200124a1760201c565b8152602080820192909252604001600020825180519192620001f39284929091019062000ce2565b5060208281015180516200020e926001850192019062000d8a565b5090505062000234336200022e600b6200037360201b6200124a1760201c565b62000377565b6200026b601060019054906101000a90046001600160a01b031662000265600b6200037360201b6200124a1760201c565b62000399565b62000282600b620004e160201b6200124e1760201c565b806200028e816200102e565b9150506200018e565b50505050505050620010a9565b3390565b600a80546001600160a01b038381166001600160a01b0319831681179093556040519116919082907f8be0079c531659141344cd1fd0a4f28419497f9722a3daafe3b4186f6b6457e090600090a35050565b600a546001600160a01b031633146200035a5760405162461bcd60e51b815260206004820181905260248201527f4f776e61626c653a2063616c6c6572206973206e6f7420746865206f776e657260448201526064015b60405180910390fd5b80516200036f90600e90602084019062000c45565b5050565b5490565b6200036f828260405180602001604052806000815250620004ea60201b60201c565b6000620003b1826200055d60201b62000a591760201c565b9050806001600160a01b0316836001600160a01b03161415620004215760405162461bcd60e51b815260206004820152602160248201527f4552433732313a20617070726f76616c20746f2063757272656e74206f776e656044820152603960f91b606482015260840162000351565b336001600160a01b03821614806200045c57506001600160a01b038116600090815260056020908152604080832033845290915290205460ff165b620004d05760405162461bcd60e51b815260206004820152603860248201527f4552433732313a20617070726f76652063616c6c6572206973206e6f74206f7760448201527f6e6572206e6f7220617070726f76656420666f7220616c6c0000000000000000606482015260840162000351565b620004dc8383620005dc565b505050565b80546001019055565b620004f683836200065a565b620005056000848484620007b0565b620004dc5760405162461bcd60e51b815260206004820152603260248201526000805160206200520483398151915260448201527131b2b4bb32b91034b6b83632b6b2b73a32b960711b606482015260840162000351565b6000818152600260205260408120546001600160a01b031680620005d65760405162461bcd60e51b815260206004820152602960248201527f4552433732313a206f776e657220717565727920666f72206e6f6e657869737460448201526832b73a103a37b5b2b760b91b606482015260840162000351565b92915050565b600081815260046020908152604090912080546001600160a01b0319166001600160a01b0385169081179091558291620006219083906200055d811b62000a5917901c565b6001600160a01b03167f8c5be1e5ebec7d5bd14f71427d1e84f3dd0314c0f7b2291e5b200ac8c7c3b92560405160405180910390a45050565b6001600160a01b038216620006b25760405162461bcd60e51b815260206004820181905260248201527f4552433732313a206d696e7420746f20746865207a65726f2061646472657373604482015260640162000351565b6000818152600260205260409020546001600160a01b031615620007195760405162461bcd60e51b815260206004820152601c60248201527f4552433732313a20746f6b656e20616c7265616479206d696e74656400000000604482015260640162000351565b620007276000838362000919565b6001600160a01b03821660009081526003602052604081208054600192906200075290849062000f89565b909155505060008181526002602052604080822080546001600160a01b0319166001600160a01b03861690811790915590518392907fddf252ad1be2c89b69c2b068fc378daa952ba7f163c4a11628f55a4df523b3ef908290a45050565b6000620007d1846001600160a01b0316620009f560201b620012571760201c565b156200090d57604051630a85bd0160e11b81526001600160a01b0385169063150b7a02906200080b90339089908890889060040162000f33565b602060405180830381600087803b1580156200082657600080fd5b505af192505050801562000859575060408051601f3d908101601f19168201909252620008569181019062000e6f565b60015b620008f2573d8080156200088a576040519150601f19603f3d011682016040523d82523d6000602084013e6200088f565b606091505b508051620008ea5760405162461bcd60e51b815260206004820152603260248201526000805160206200520483398151915260448201527131b2b4bb32b91034b6b83632b6b2b73a32b960711b606482015260840162000351565b805181602001fd5b6001600160e01b031916630a85bd0160e11b14905062000911565b5060015b949350505050565b62000931838383620004dc60201b6200079a1760201c565b6001600160a01b0383166200098f576200098981600880546000838152600960205260408120829055600182018355919091527ff3f7a9fe364faab93b216da50a3214154f22a0a2b415b23a84c8169e8b636ee30155565b620009b5565b816001600160a01b0316836001600160a01b031614620009b557620009b5838262000a04565b6001600160a01b038216620009cf57620004dc8162000ab1565b826001600160a01b0316826001600160a01b031614620004dc57620004dc828262000b6b565b6001600160a01b03163b151590565b6000600162000a1e8462000bbc60201b62000b5e1760201c565b62000a2a919062000fa4565b60008381526007602052604090205490915080821462000a7e576001600160a01b03841660009081526006602090815260408083208584528252808320548484528184208190558352600790915290208190555b5060009182526007602090815260408084208490556001600160a01b039094168352600681528383209183525290812055565b60085460009062000ac59060019062000fa4565b6000838152600960205260408120546008805493945090928490811062000af05762000af06200107d565b90600052602060002001549050806008838154811062000b145762000b146200107d565b600091825260208083209091019290925582815260099091526040808220849055858252812055600880548062000b4f5762000b4f62001067565b6001900381819060005260206000200160009055905550505050565b600062000b838362000bbc60201b62000b5e1760201c565b6001600160a01b039093166000908152600660209081526040808320868452825280832085905593825260079052919091209190915550565b60006001600160a01b03821662000c295760405162461bcd60e51b815260206004820152602a60248201527f4552433732313a2062616c616e636520717565727920666f7220746865207a65604482015269726f206164647265737360b01b606482015260840162000351565b506001600160a01b031660009081526003602052604090205490565b82805462000c539062000ff1565b90600052602060002090601f01602090048101928262000c77576000855562000cc2565b82601f1062000c9257805160ff191683800117855562000cc2565b8280016001018555821562000cc2579182015b8281111562000cc257825182559160200191906001019062000ca5565b5062000cd092915062000dc7565b5090565b6117fc8062003a0883390190565b82805482825590600052602060002090601f0160209004810192821562000cc25791602002820160005b8382111562000d4c57835183826101000a81548160ff021916908360ff160217905550926020019260010160208160000104928301926001030262000d0c565b801562000d7b5782816101000a81549060ff021916905560010160208160000104928301926001030262000d4c565b505062000cd092915062000dc7565b82805482825590600052602060002090810192821562000cc2579160200282018281111562000cc257825182559160200191906001019062000ca5565b5b8082111562000cd0576000815560010162000dc8565b600082601f83011262000df057600080fd5b81516001600160401b038082111562000e0d5762000e0d62001093565b604051601f8301601f19908116603f0116810190828211818310171562000e385762000e3862001093565b8160405283815286602085880101111562000e5257600080fd5b62000e6584602083016020890162000fbe565b9695505050505050565b60006020828403121562000e8257600080fd5b81516001600160e01b03198116811462000e9b57600080fd5b9392505050565b60008060006060848603121562000eb857600080fd5b83516001600160401b038082111562000ed057600080fd5b62000ede8783880162000dde565b9450602086015191508082111562000ef557600080fd5b62000f038783880162000dde565b9350604086015191508082111562000f1a57600080fd5b5062000f298682870162000dde565b9150509250925092565b600060018060a01b03808716835280861660208401525083604083015260806060830152825180608084015262000f728160a085016020870162000fbe565b601f01601f19169190910160a00195945050505050565b6000821982111562000f9f5762000f9f62001051565b500190565b60008282101562000fb95762000fb962001051565b500390565b60005b8381101562000fdb57818101518382015260200162000fc1565b8381111562000feb576000848401525b50505050565b600181811c908216806200100657607f821691505b602082108114156200102857634e487b7160e01b600052602260045260246000fd5b50919050565b600060ff821660ff81141562001048576200104862001051565b60010192915050565b634e487b7160e01b600052601160045260246000fd5b634e487b7160e01b600052603160045260246000fd5b634e487b7160e01b600052603260045260246000fd5b634e487b7160e01b600052604160045260246000fd5b61294f80620010b96000396000f3fe608060405234801561001057600080fd5b50600436106102115760003560e01c806370a0823111610125578063c1e03728116100ad578063e2f6215c1161007c578063e2f6215c14610469578063e985e9c51461047c578063ea4edda2146104b8578063f26bf0b7146104cb578063f2fde38b146104de57600080fd5b8063c1e0372814610418578063c668286214610438578063c87b56dd14610440578063c8fe53441461045357600080fd5b80638da5cb5b116100f45780638da5cb5b146103c657806395d89b41146103d7578063a22cb465146103df578063b88d4fde146103f2578063beabacc81461040557600080fd5b806370a0823114610378578063715018a61461038b57806382de8fe91461039357806383638710146103b357600080fd5b80633cb11944116101a85780634f6ccce7116101775780634f6ccce71461032a57806355f804b31461033d5780635c975abb146103505780636352211e1461035d5780636c0360eb1461037057600080fd5b80633cb11944146102de57806342842e0e146102f157806342966c6814610304578063489720341461031757600080fd5b8063095ea7b3116101e4578063095ea7b31461029357806318160ddd146102a657806323b872dd146102b85780632f745c59146102cb57600080fd5b806301ffc9a71461021657806302329a291461023e57806306fdde0314610253578063081812fc14610268575b600080fd5b6102296102243660046122aa565b6104f1565b60405190151581526020015b60405180910390f35b61025161024c36600461228f565b61051c565b005b61025b610562565b60405161023591906125d1565b61027b610276366004612421565b6105f4565b6040516001600160a01b039091168152602001610235565b6102516102a1366004612265565b610689565b6008545b604051908152602001610235565b6102516102c636600461210f565b61079f565b6102aa6102d9366004612265565b6107d0565b6102516102ec366004612319565b610866565b6102516102ff36600461210f565b6108b5565b610251610312366004612421565b6108d0565b6102516103253660046120c1565b610933565b6102aa610338366004612421565b610985565b61025161034b3660046122e4565b610a18565b6010546102299060ff1681565b61027b61036b366004612421565b610a59565b61025b610ad0565b6102aa6103863660046120c1565b610b5e565b610251610be5565b6103a66103a13660046120c1565b610c1b565b60405161023591906125be565b61027b6103c1366004612421565b610d0a565b600a546001600160a01b031661027b565b61025b610d15565b6102516103ed36600461223b565b610d24565b61025161040036600461214b565b610d2f565b61025161041336600461210f565b610d67565b61042b610426366004612421565b610dd9565b60405161023591906126fe565b61025b610ecc565b61025b61044e366004612421565b610ed9565b60105461010090046001600160a01b031661027b565b61025161047736600461235e565b610fb7565b61022961048a3660046120dc565b6001600160a01b03918216600090815260056020908152604080832093909416825291909152205460ff1690565b6102516104c63660046121c7565b6110ae565b6102aa6104d93660046122e4565b61118a565b6102516104ec3660046120c1565b6111b2565b60006001600160e01b0319821663780e9d6360e01b1480610516575061051682611266565b92915050565b600a546001600160a01b0316331461054f5760405162461bcd60e51b815260040161054690612678565b60405180910390fd5b6010805460ff1916911515919091179055565b60606000805461057190612831565b80601f016020809104026020016040519081016040528092919081815260200182805461059d90612831565b80156105ea5780601f106105bf576101008083540402835291602001916105ea565b820191906000526020600020905b8154815290600101906020018083116105cd57829003601f168201915b5050505050905090565b6000818152600260205260408120546001600160a01b031661066d5760405162461bcd60e51b815260206004820152602c60248201527f4552433732313a20617070726f76656420717565727920666f72206e6f6e657860448201526b34b9ba32b73a103a37b5b2b760a11b6064820152608401610546565b506000908152600460205260409020546001600160a01b031690565b600061069482610a59565b9050806001600160a01b0316836001600160a01b031614156107025760405162461bcd60e51b815260206004820152602160248201527f4552433732313a20617070726f76616c20746f2063757272656e74206f776e656044820152603960f91b6064820152608401610546565b336001600160a01b038216148061071e575061071e813361048a565b6107905760405162461bcd60e51b815260206004820152603860248201527f4552433732313a20617070726f76652063616c6c6572206973206e6f74206f7760448201527f6e6572206e6f7220617070726f76656420666f7220616c6c00000000000000006064820152608401610546565b61079a83836112b6565b505050565b6107a93382611324565b6107c55760405162461bcd60e51b8152600401610546906126ad565b61079a83838361141b565b60006107db83610b5e565b821061083d5760405162461bcd60e51b815260206004820152602b60248201527f455243373231456e756d657261626c653a206f776e657220696e646578206f7560448201526a74206f6620626f756e647360a81b6064820152608401610546565b506001600160a01b03919091166000908152600660209081526040808320938352929052205490565b600a546001600160a01b031633146108905760405162461bcd60e51b815260040161054690612678565b80600c836040516108a191906124a1565b908152604051908190036020019020555050565b61079a83838360405180602001604052806000815250610d2f565b60105461010090046001600160a01b03163314806108fc575060105461010090046001600160a01b0316155b801561090b575060105460ff16155b6109275760405162461bcd60e51b8152600401610546906125e4565b610930816115c2565b50565b600a546001600160a01b0316331461095d5760405162461bcd60e51b815260040161054690612678565b601080546001600160a01b0390921661010002610100600160a81b0319909216919091179055565b600061099060085490565b82106109f35760405162461bcd60e51b815260206004820152602c60248201527f455243373231456e756d657261626c653a20676c6f62616c20696e646578206f60448201526b7574206f6620626f756e647360a01b6064820152608401610546565b60088281548110610a0657610a066128d7565b90600052602060002001549050919050565b600a546001600160a01b03163314610a425760405162461bcd60e51b815260040161054690612678565b8051610a5590600e906020840190611dba565b5050565b6000818152600260205260408120546001600160a01b0316806105165760405162461bcd60e51b815260206004820152602960248201527f4552433732313a206f776e657220717565727920666f72206e6f6e657869737460448201526832b73a103a37b5b2b760b91b6064820152608401610546565b600e8054610add90612831565b80601f0160208091040260200160405190810160405280929190818152602001828054610b0990612831565b8015610b565780601f10610b2b57610100808354040283529160200191610b56565b820191906000526020600020905b815481529060010190602001808311610b3957829003601f168201915b505050505081565b60006001600160a01b038216610bc95760405162461bcd60e51b815260206004820152602a60248201527f4552433732313a2062616c616e636520717565727920666f7220746865207a65604482015269726f206164647265737360b01b6064820152608401610546565b506001600160a01b031660009081526003602052604090205490565b600a546001600160a01b03163314610c0f5760405162461bcd60e51b815260040161054690612678565b610c196000611669565b565b60606000610c2883610b5e565b905080610c45575050604080516000815260208101909152919050565b60008167ffffffffffffffff811115610c6057610c606128ed565b604051908082528060200260200182016040528015610c89578160200160208202803683370190505b5090506000805b600b54811015610cfa57856001600160a01b0316610cad82610a59565b6001600160a01b03161415610ce85780838381518110610ccf57610ccf6128d7565b602090810291909101015281610ce481612866565b9250505b80610cf281612866565b915050610c90565b5090949350505050565b50919050565b600061051682610a59565b60606001805461057190612831565b610a553383836116bb565b610d393383611324565b610d555760405162461bcd60e51b8152600401610546906126ad565b610d618484848461178a565b50505050565b60105461010090046001600160a01b0316331480610d93575060105461010090046001600160a01b0316155b8015610da2575060105460ff16155b610dbe5760405162461bcd60e51b8152600401610546906125e4565b61079a8383836040518060200160405280600081525061178a565b604080518082018252606080825260208083018290526000858152600d825284902084518154928302810184018652948501828152939493909284928491840182828015610e6457602002820191906000526020600020906000905b825461010083900a900460ff16815260206001928301818104948501949093039092029101808411610e355790505b5050505050815260200160018201805480602002602001604051908101604052809291908181526020018280548015610ebc57602002820191906000526020600020905b815481526020019060010190808311610ea8575b5050505050815250509050919050565b600f8054610add90612831565b6000818152600260205260409020546060906001600160a01b0316610f585760405162461bcd60e51b815260206004820152602f60248201527f4552433732314d657461646174613a2055524920717565727920666f72206e6f60448201526e3732bc34b9ba32b73a103a37b5b2b760891b6064820152608401610546565b6000610f626117bd565b90506000815111610f825760405180602001604052806000815250610fb0565b80610f8c846117cc565b600f604051602001610fa0939291906124bd565b6040516020818303038152906040525b9392505050565b60105461010090046001600160a01b0316331480610fe3575060105461010090046001600160a01b0316155b8015610ff2575060105460ff16155b61100e5760405162461bcd60e51b8152600401610546906125e4565b806001600160a01b031661102183610a59565b6001600160a01b0316146110685760405162461bcd60e51b815260206004820152600e60248201526d2737ba102cb7bab9103a37b5b2b760911b6044820152606401610546565b6000828152600d6020908152604090912084518051869361108d928492910190611e3e565b5060208281015180516110a69260018501920190611edf565b505050505050565b60105461010090046001600160a01b03163314806110da575060105461010090046001600160a01b0316155b80156110e9575060105460ff16155b6111055760405162461bcd60e51b8152600401610546906125e4565b604051806040016040528083815260200182815250600d6000611127600b5490565b815260208082019290925260400160002082518051919261114d92849290910190611e3e565b5060208281015180516111669260018501920190611edf565b5090505061117c83611177600b5490565b6118ca565b61079a600b80546001019055565b6000600c8260405161119c91906124a1565b9081526020016040518091039020549050919050565b600a546001600160a01b031633146111dc5760405162461bcd60e51b815260040161054690612678565b6001600160a01b0381166112415760405162461bcd60e51b815260206004820152602660248201527f4f776e61626c653a206e6577206f776e657220697320746865207a65726f206160448201526564647265737360d01b6064820152608401610546565b61093081611669565b5490565b80546001019055565b6001600160a01b03163b151590565b60006001600160e01b031982166380ac58cd60e01b148061129757506001600160e01b03198216635b5e139f60e01b145b8061051657506301ffc9a760e01b6001600160e01b0319831614610516565b600081815260046020526040902080546001600160a01b0319166001600160a01b03841690811790915581906112eb82610a59565b6001600160a01b03167f8c5be1e5ebec7d5bd14f71427d1e84f3dd0314c0f7b2291e5b200ac8c7c3b92560405160405180910390a45050565b6000818152600260205260408120546001600160a01b031661139d5760405162461bcd60e51b815260206004820152602c60248201527f4552433732313a206f70657261746f7220717565727920666f72206e6f6e657860448201526b34b9ba32b73a103a37b5b2b760a11b6064820152608401610546565b60006113a883610a59565b9050806001600160a01b0316846001600160a01b031614806113e35750836001600160a01b03166113d8846105f4565b6001600160a01b0316145b8061141357506001600160a01b0380821660009081526005602090815260408083209388168352929052205460ff165b949350505050565b826001600160a01b031661142e82610a59565b6001600160a01b0316146114925760405162461bcd60e51b815260206004820152602560248201527f4552433732313a207472616e736665722066726f6d20696e636f72726563742060448201526437bbb732b960d91b6064820152608401610546565b6001600160a01b0382166114f45760405162461bcd60e51b8152602060048201526024808201527f4552433732313a207472616e7366657220746f20746865207a65726f206164646044820152637265737360e01b6064820152608401610546565b6114ff8383836118e4565b61150a6000826112b6565b6001600160a01b03831660009081526003602052604081208054600192906115339084906127ee565b90915550506001600160a01b03821660009081526003602052604081208054600192906115619084906127c2565b909155505060008181526002602052604080822080546001600160a01b0319166001600160a01b0386811691821790925591518493918716917fddf252ad1be2c89b69c2b068fc378daa952ba7f163c4a11628f55a4df523b3ef91a4505050565b60006115cd82610a59565b90506115db816000846118e4565b6115e66000836112b6565b6001600160a01b038116600090815260036020526040812080546001929061160f9084906127ee565b909155505060008281526002602052604080822080546001600160a01b0319169055518391906001600160a01b038416907fddf252ad1be2c89b69c2b068fc378daa952ba7f163c4a11628f55a4df523b3ef908390a45050565b600a80546001600160a01b038381166001600160a01b0319831681179093556040519116919082907f8be0079c531659141344cd1fd0a4f28419497f9722a3daafe3b4186f6b6457e090600090a35050565b816001600160a01b0316836001600160a01b0316141561171d5760405162461bcd60e51b815260206004820152601960248201527f4552433732313a20617070726f766520746f2063616c6c6572000000000000006044820152606401610546565b6001600160a01b03838116600081815260056020908152604080832094871680845294825291829020805460ff191686151590811790915591519182527f17307eab39ab6107e8899845ad3d59bd9653f200f220920489ca2b5937696c31910160405180910390a3505050565b61179584848461141b565b6117a18484848461199c565b610d615760405162461bcd60e51b815260040161054690612626565b6060600e805461057190612831565b6060816117f05750506040805180820190915260018152600360fc1b602082015290565b8160005b811561181a578061180481612866565b91506118139050600a836127da565b91506117f4565b60008167ffffffffffffffff811115611835576118356128ed565b6040519080825280601f01601f19166020018201604052801561185f576020820181803683370190505b5090505b8415611413576118746001836127ee565b9150611881600a86612881565b61188c9060306127c2565b60f81b8183815181106118a1576118a16128d7565b60200101906001600160f81b031916908160001a9053506118c3600a866127da565b9450611863565b610a55828260405180602001604052806000815250611aa9565b6001600160a01b03831661193f5761193a81600880546000838152600960205260408120829055600182018355919091527ff3f7a9fe364faab93b216da50a3214154f22a0a2b415b23a84c8169e8b636ee30155565b611962565b816001600160a01b0316836001600160a01b031614611962576119628382611adc565b6001600160a01b0382166119795761079a81611b79565b826001600160a01b0316826001600160a01b03161461079a5761079a8282611c28565b60006001600160a01b0384163b15611a9e57604051630a85bd0160e11b81526001600160a01b0385169063150b7a02906119e0903390899088908890600401612581565b602060405180830381600087803b1580156119fa57600080fd5b505af1925050508015611a2a575060408051601f3d908101601f19168201909252611a27918101906122c7565b60015b611a84573d808015611a58576040519150601f19603f3d011682016040523d82523d6000602084013e611a5d565b606091505b508051611a7c5760405162461bcd60e51b815260040161054690612626565b805181602001fd5b6001600160e01b031916630a85bd0160e11b149050611413565b506001949350505050565b611ab38383611c6c565b611ac0600084848461199c565b61079a5760405162461bcd60e51b815260040161054690612626565b60006001611ae984610b5e565b611af391906127ee565b600083815260076020526040902054909150808214611b46576001600160a01b03841660009081526006602090815260408083208584528252808320548484528184208190558352600790915290208190555b5060009182526007602090815260408084208490556001600160a01b039094168352600681528383209183525290812055565b600854600090611b8b906001906127ee565b60008381526009602052604081205460088054939450909284908110611bb357611bb36128d7565b906000526020600020015490508060088381548110611bd457611bd46128d7565b6000918252602080832090910192909255828152600990915260408082208490558582528120556008805480611c0c57611c0c6128c1565b6001900381819060005260206000200160009055905550505050565b6000611c3383610b5e565b6001600160a01b039093166000908152600660209081526040808320868452825280832085905593825260079052919091209190915550565b6001600160a01b038216611cc25760405162461bcd60e51b815260206004820181905260248201527f4552433732313a206d696e7420746f20746865207a65726f20616464726573736044820152606401610546565b6000818152600260205260409020546001600160a01b031615611d275760405162461bcd60e51b815260206004820152601c60248201527f4552433732313a20746f6b656e20616c7265616479206d696e746564000000006044820152606401610546565b611d33600083836118e4565b6001600160a01b0382166000908152600360205260408120805460019290611d5c9084906127c2565b909155505060008181526002602052604080822080546001600160a01b0319166001600160a01b03861690811790915590518392907fddf252ad1be2c89b69c2b068fc378daa952ba7f163c4a11628f55a4df523b3ef908290a45050565b828054611dc690612831565b90600052602060002090601f016020900481019282611de85760008555611e2e565b82601f10611e0157805160ff1916838001178555611e2e565b82800160010185558215611e2e579182015b82811115611e2e578251825591602001919060010190611e13565b50611e3a929150611f19565b5090565b82805482825590600052602060002090601f01602090048101928215611e2e5791602002820160005b83821115611ea557835183826101000a81548160ff021916908360ff1602179055509260200192600101602081600001049283019260010302611e67565b8015611ed25782816101000a81549060ff0219169055600101602081600001049283019260010302611ea5565b5050611e3a929150611f19565b828054828255906000526020600020908101928215611e2e5791602002820182811115611e2e578251825591602001919060010190611e13565b5b80821115611e3a5760008155600101611f1a565b600067ffffffffffffffff831115611f4857611f486128ed565b611f5b601f8401601f191660200161276d565b9050828152838383011115611f6f57600080fd5b828260208301376000602084830101529392505050565b80356001600160a01b0381168114611f9d57600080fd5b919050565b600082601f830112611fb357600080fd5b81356020611fc8611fc38361279e565b61276d565b80838252828201915082860187848660051b8901011115611fe857600080fd5b60005b8581101561200757813584529284019290840190600101611feb565b5090979650505050505050565b600082601f83011261202557600080fd5b81356020612035611fc38361279e565b80838252828201915082860187848660051b890101111561205557600080fd5b6000805b8681101561208357823560ff81168114612071578283fd5b85529385019391850191600101612059565b509198975050505050505050565b80358015158114611f9d57600080fd5b600082601f8301126120b257600080fd5b610fb083833560208501611f2e565b6000602082840312156120d357600080fd5b610fb082611f86565b600080604083850312156120ef57600080fd5b6120f883611f86565b915061210660208401611f86565b90509250929050565b60008060006060848603121561212457600080fd5b61212d84611f86565b925061213b60208501611f86565b9150604084013590509250925092565b6000806000806080858703121561216157600080fd5b61216a85611f86565b935061217860208601611f86565b925060408501359150606085013567ffffffffffffffff81111561219b57600080fd5b8501601f810187136121ac57600080fd5b6121bb87823560208401611f2e565b91505092959194509250565b6000806000606084860312156121dc57600080fd5b6121e584611f86565b9250602084013567ffffffffffffffff8082111561220257600080fd5b61220e87838801612014565b9350604086013591508082111561222457600080fd5b5061223186828701611fa2565b9150509250925092565b6000806040838503121561224e57600080fd5b61225783611f86565b915061210660208401612091565b6000806040838503121561227857600080fd5b61228183611f86565b946020939093013593505050565b6000602082840312156122a157600080fd5b610fb082612091565b6000602082840312156122bc57600080fd5b8135610fb081612903565b6000602082840312156122d957600080fd5b8151610fb081612903565b6000602082840312156122f657600080fd5b813567ffffffffffffffff81111561230d57600080fd5b611413848285016120a1565b6000806040838503121561232c57600080fd5b823567ffffffffffffffff81111561234357600080fd5b61234f858286016120a1565b95602094909401359450505050565b60008060006060848603121561237357600080fd5b833567ffffffffffffffff8082111561238b57600080fd5b908501906040828803121561239f57600080fd5b6040516040810181811083821117156123ba576123ba6128ed565b6040528235828111156123cc57600080fd5b6123d889828601612014565b8252506020830135828111156123ed57600080fd5b6123f989828601611fa2565b6020830152508095505050506020840135915061241860408501611f86565b90509250925092565b60006020828403121561243357600080fd5b5035919050565b600081518084526020808501945080840160005b8381101561246a5781518752958201959082019060010161244e565b509495945050505050565b6000815180845261248d816020860160208601612805565b601f01601f19169290920160200192915050565b600082516124b3818460208701612805565b9190910192915050565b6000845160206124d08285838a01612805565b8551918401916124e38184848a01612805565b8554920191600090600181811c908083168061250057607f831692505b85831081141561251e57634e487b7160e01b85526022600452602485fd5b808015612532576001811461254357612570565b60ff19851688528388019550612570565b60008b81526020902060005b858110156125685781548a82015290840190880161254f565b505083880195505b50939b9a5050505050505050505050565b6001600160a01b03858116825284166020820152604081018390526080606082018190526000906125b490830184612475565b9695505050505050565b602081526000610fb0602083018461243a565b602081526000610fb06020830184612475565b60208082526022908201527f4e6f7420676f6f6420616464726573732064656c656761746520636f6e74726160408201526118dd60f21b606082015260800190565b60208082526032908201527f4552433732313a207472616e7366657220746f206e6f6e20455243373231526560408201527131b2b4bb32b91034b6b83632b6b2b73a32b960711b606082015260800190565b6020808252818101527f4f776e61626c653a2063616c6c6572206973206e6f7420746865206f776e6572604082015260600190565b60208082526031908201527f4552433732313a207472616e736665722063616c6c6572206973206e6f74206f6040820152701ddb995c881b9bdc88185c1c1c9bdd9959607a1b606082015260800190565b6020808252825160408383015280516060840181905260009291820190839060808601905b8083101561274657835160ff168252928401926001929092019190840190612723565b5092860151858403601f1901604087015292612762818561243a565b979650505050505050565b604051601f8201601f1916810167ffffffffffffffff81118282101715612796576127966128ed565b604052919050565b600067ffffffffffffffff8211156127b8576127b86128ed565b5060051b60200190565b600082198211156127d5576127d5612895565b500190565b6000826127e9576127e96128ab565b500490565b60008282101561280057612800612895565b500390565b60005b83811015612820578181015183820152602001612808565b83811115610d615750506000910152565b600181811c9082168061284557607f821691505b60208210811415610d0457634e487b7160e01b600052602260045260246000fd5b600060001982141561287a5761287a612895565b5060010190565b600082612890576128906128ab565b500690565b634e487b7160e01b600052601160045260246000fd5b634e487b7160e01b600052601260045260246000fd5b634e487b7160e01b600052603160045260246000fd5b634e487b7160e01b600052603260045260246000fd5b634e487b7160e01b600052604160045260246000fd5b6001600160e01b03198116811461093057600080fdfea264697066735822122044fd7d6871172d13a8b702c3f241b5726a2ccea9224bec8663651fdb10f18d6464736f6c6343000806003360806040523480156200001157600080fd5b50604051620017fc380380620017fc8339810160408190526200003491620001d0565b6200003f33620000f8565b600480546001600160a01b0319166001600160a01b03831617905560405162189a5960ea1b815267016345785d8a0000906003908101908152604051908190036020018120919091556b39ba30b93a20bab1ba34b7b760a11b8152600090600390600c0190815260405190819003602001902055620000d2730ce1a376d6cc69a6f74f27e7b1d65171fcb69c8062000148565b620000f173b02d6e4a6aae738c02651739c27fb2ae0fc92b1462000148565b5062000231565b600080546001600160a01b038381166001600160a01b0319831681178455604051919092169283917f8be0079c531659141344cd1fd0a4f28419497f9722a3daafe3b4186f6b6457e09190a35050565b6040805180820182526001600160a01b038084168252600160208084018281526007805460ff9081166000908152949093529583209451855491511515600160a01b026001600160a81b0319909216941693909317929092179092558254169190620001b48362000202565b91906101000a81548160ff021916908360ff1602179055505050565b600060208284031215620001e357600080fd5b81516001600160a01b0381168114620001fb57600080fd5b9392505050565b600060ff821660ff8114156200022857634e487b7160e01b600052601160045260246000fd5b60010192915050565b6115bb80620002416000396000f3fe6080604052600436106101095760003560e01c80639c344cf211610095578063db774c7911610064578063db774c79146102f0578063e322a56a146102f8578063f26bf0b71461030d578063f2fde38b1461033b578063fe67a54b1461035b57600080fd5b80639c344cf21461020a578063b6b55f2514610290578063c1e03728146102a3578063d6b730d2146102d057600080fd5b80635c70bac3116100dc5780635c70bac3146101785780636b64c76914610198578063715018a6146101ad57806382de8fe9146101c25780638da5cb5b146101e257600080fd5b80630672a90a1461010e5780633a79d2e5146101185780633cb11944146101435780633ccfd60b14610163575b600080fd5b610116610370565b005b34801561012457600080fd5b5061012d6103f3565b60405161013a919061134b565b60405180910390f35b34801561014f57600080fd5b5061011661015e366004611110565b610492565b34801561016f57600080fd5b506101166104ea565b34801561018457600080fd5b50610116610193366004611064565b610519565b3480156101a457600080fd5b506101166105b2565b3480156101b957600080fd5b506101166105e6565b3480156101ce57600080fd5b5061012d6101dd366004611064565b61061c565b3480156101ee57600080fd5b506000546040516001600160a01b03909116815260200161013a565b34801561021657600080fd5b5061026c610225366004611250565b604080518082019091526000808252602082015250600090815260026020908152604091829020825180840190935280546001600160a01b03168352600101549082015290565b6040805182516001600160a01b03168152602092830151928101929092520161013a565b61011661029e366004611250565b6106ac565b3480156102af57600080fd5b506102c36102be366004611250565b6106b8565b60405161013a9190611393565b3480156102dc57600080fd5b506101166102eb366004611064565b61074c565b610116610798565b34801561030457600080fd5b506101166109b5565b34801561031957600080fd5b5061032d6103283660046110db565b610a63565b60405190815260200161013a565b34801561034757600080fd5b50610116610356366004611064565b610a8b565b34801561036757600080fd5b50610116610b23565b600061037a610db9565b90506000610386610e16565b600480546040516375276ed160e11b81529293506001600160a01b031691829163ea4edda2916103bc91339188918891016112df565b600060405180830381600087803b1580156103d657600080fd5b505af11580156103ea573d6000803e3d6000fd5b50505050505050565b6060600060065467ffffffffffffffff8111156104125761041261155a565b60405190808252806020026020018201604052801561043b578160200160208202803683370190505b5090506000805b60065481101561048a578083838151811061045f5761045f611544565b602090810291909101015281610474816114c9565b9250508080610482906114c9565b915050610442565b509092915050565b6000546001600160a01b031633146104c55760405162461bcd60e51b81526004016104bc9061135e565b60405180910390fd5b806003836040516104d691906112a4565b908152604051908190036020019020555050565b60405133904780156108fc02916000818181858888f19350505050158015610516573d6000803e3d6000fd5b50565b60005b60075460ff908116908216116105ae5760ff81166000908152600160205260409020546001600160a01b038381169116141561059c5760ff8082166000908152600160205260408120805460ff60a01b19169055600780549092169190610582836114ac565b91906101000a81548160ff021916908360ff160217905550505b806105a6816114e4565b91505061051c565b5050565b4260036040516105d4906b39ba30b93a20bab1ba34b7b760a11b8152600c0190565b90815260405190819003602001902055565b6000546001600160a01b031633146106105760405162461bcd60e51b81526004016104bc9061135e565b61061a6000610e63565b565b600480546040516382de8fe960e01b81526001600160a01b03848116938201939093526060929091169081906382de8fe99060240160006040518083038186803b15801561066957600080fd5b505afa15801561067d573d6000803e3d6000fd5b505050506040513d6000823e601f3d908101601f191682016040526106a5919081019061109e565b9392505050565b80341461051657600080fd5b60408051808201909152606080825260208201526004805460405163183c06e560e31b81529182018490526001600160a01b031690819063c1e037289060240160006040518083038186803b15801561071057600080fd5b505afa158015610724573d6000803e3d6000fd5b505050506040513d6000823e601f3d908101601f191682016040526106a59190810190611155565b6000546001600160a01b031633146107765760405162461bcd60e51b81526004016104bc9061135e565b600480546001600160a01b0319166001600160a01b0392909216919091179055565b60405162189a5960ea1b8152600390810190815260200160405180910390205434116108065760405162461bcd60e51b815260206004820152601c60248201527f52657175697265206d6f72652045544820666f722062696464696e670000000060448201526064016104bc565b604080516b39ba30b93a20bab1ba34b7b760a11b81526003600c820152905190819003602c019020546108715760405162461bcd60e51b8152602060048201526013602482015272105d58dd1a5bdb881b9bdd081cdd185c9d1959606a1b60448201526064016104bc565b604080516b39ba30b93a20bab1ba34b7b760a11b81526003600c820152905190819003602c019020546108a690610258611480565b42106108ea5760405162461bcd60e51b8152602060048201526013602482015272105d58dd1a5bdb881a5cc8199a5b9a5cda1959606a1b60448201526064016104bc565b3460036040516109039062189a5960ea1b815260030190565b9081526040805191829003602090810183209390935581810181523380835234848401818152600654600090815260028752849020945185546001600160a01b039091166001600160a01b031991821617865590516001909501949094556005805490941682179093559051918252917fe254e1bfba15aa47e1722f8875e9129681f2762faf4442f643cd2e2043bd27ab910160405180910390a2600680549060006109ae836114c9565b9190505550565b60005b60075460ff90811690821611610516576007546000906109db9060ff1647611498565b60ff808416600090815260016020819052604090912054929350600160a01b9092041615151415610a505760ff82166000908152600160205260408082205490516001600160a01b039091169183156108fc02918491818181858888f19350505050158015610a4e573d6000803e3d6000fd5b505b5080610a5b816114e4565b9150506109b8565b6000600382604051610a7591906112a4565b9081526020016040518091039020549050919050565b6000546001600160a01b03163314610ab55760405162461bcd60e51b81526004016104bc9061135e565b6001600160a01b038116610b1a5760405162461bcd60e51b815260206004820152602660248201527f4f776e61626c653a206e6577206f776e657220697320746865207a65726f206160448201526564647265737360d01b60648201526084016104bc565b61051681610e63565b604080516b39ba30b93a20bab1ba34b7b760a11b81526003600c820152905190819003602c01902054610b5890610258611480565b421015610b9d5760405162461bcd60e51b8152602060048201526013602482015272105d58dd1a5bdb881a5cc8199a5b9a5cda1959606a1b60448201526064016104bc565b600754610100900460ff1615610be95760405162461bcd60e51b815260206004820152601160248201527018dbdb1b1958dd1a5bdb881cd95b1b1959607a1b60448201526064016104bc565b6004546001600160a01b031660005b6006548111610da1576000818152600260205260409020546005546001600160a01b0390811691161415610d425760005b600a811015610d3c57604051630836387160e41b8152600481018290526001600160a01b0384169063beabacc890829063836387109060240160206040518083038186803b158015610c7a57600080fd5b505afa158015610c8e573d6000803e3d6000fd5b505050506040513d601f19601f82011682018060405250810190610cb29190611081565b6000858152600260205260409081902054905160e084901b6001600160e01b03191681526001600160a01b0392831660048201529116602482015260448101849052606401600060405180830381600087803b158015610d1157600080fd5b505af1158015610d25573d6000803e3d6000fd5b505050508080610d34906114c9565b915050610c29565b50610d8f565b600081815260026020526040808220805460019091015491516001600160a01b039091169282156108fc02929190818181858888f19350505050158015610d8d573d6000803e3d6000fd5b505b80610d99816114c9565b915050610bf8565b506007805461ff0019166101001790556105166109b5565b60408051600a8082526101608201909252606091600091906020820161014080368337019050509050610dec6004610eb3565b81600081518110610dff57610dff611544565b60ff90921660209283029190910190910152919050565b60408051600a80825261016082019092526060916000919060208201610140803683370190505090504281600081518110610e5357610e53611544565b6020908102919091010152919050565b600080546001600160a01b038381166001600160a01b0319831681178455604051919092169283917f8be0079c531659141344cd1fd0a4f28419497f9722a3daafe3b4186f6b6457e09190a35050565b6000808260ff1642336003604051610ed690646e6f6e636560d81b815260050190565b908152602001604051809103902054604051602001610f1a9392919092835260609190911b6bffffffffffffffffffffffff19166020830152603482015260540190565b6040516020818303038152906040528051906020012060001c610f3d9190611504565b90506003604051610f5990646e6f6e636560d81b815260050190565b9081526040519081900360200190208054906000610f76836114c9565b90915550909392505050565b600082601f830112610f9357600080fd5b81516020610fa8610fa38361145c565b61142b565b80838252828201915082860187848660051b8901011115610fc857600080fd5b60005b85811015610fe757815184529284019290840190600101610fcb565b5090979650505050505050565b600082601f83011261100557600080fd5b813567ffffffffffffffff81111561101f5761101f61155a565b611032601f8201601f191660200161142b565b81815284602083860101111561104757600080fd5b816020850160208301376000918101602001919091529392505050565b60006020828403121561107657600080fd5b81356106a581611570565b60006020828403121561109357600080fd5b81516106a581611570565b6000602082840312156110b057600080fd5b815167ffffffffffffffff8111156110c757600080fd5b6110d384828501610f82565b949350505050565b6000602082840312156110ed57600080fd5b813567ffffffffffffffff81111561110457600080fd5b6110d384828501610ff4565b6000806040838503121561112357600080fd5b823567ffffffffffffffff81111561113a57600080fd5b61114685828601610ff4565b95602094909401359450505050565b6000602080838503121561116857600080fd5b825167ffffffffffffffff8082111561118057600080fd5b908401906040828703121561119457600080fd5b61119c611402565b8251828111156111ab57600080fd5b8301601f810188136111bc57600080fd5b80516111ca610fa38261145c565b8082825287820191508784018b898560051b87010111156111ea57600080fd5b600094505b8385101561121c57805160ff8116811461120857600080fd5b8352600194909401939188019188016111ef565b508452505050828401518281111561123357600080fd5b61123f88828601610f82565b948201949094529695505050505050565b60006020828403121561126257600080fd5b5035919050565b600081518084526020808501945080840160005b838110156112995781518752958201959082019060010161127d565b509495945050505050565b6000825160005b818110156112c557602081860181015185830152016112ab565b818111156112d4576000828501525b509190910192915050565b6001600160a01b038416815260606020808301829052845191830182905260009185820191906080850190845b8181101561132b57845160ff168352938301939183019160010161130c565b5050848103604086015261133f8187611269565b98975050505050505050565b6020815260006106a56020830184611269565b6020808252818101527f4f776e61626c653a2063616c6c6572206973206e6f7420746865206f776e6572604082015260600190565b6020808252825160408383015280516060840181905260009291820190839060808601905b808310156113db57835160ff1682529284019260019290920191908401906113b8565b5092860151858403601f19016040870152926113f78185611269565b979650505050505050565b6040805190810167ffffffffffffffff811182821017156114255761142561155a565b60405290565b604051601f8201601f1916810167ffffffffffffffff811182821017156114545761145461155a565b604052919050565b600067ffffffffffffffff8211156114765761147661155a565b5060051b60200190565b6000821982111561149357611493611518565b500190565b6000826114a7576114a761152e565b500490565b600060ff8216806114bf576114bf611518565b6000190192915050565b60006000198214156114dd576114dd611518565b5060010190565b600060ff821660ff8114156114fb576114fb611518565b60010192915050565b6000826115135761151361152e565b500690565b634e487b7160e01b600052601160045260246000fd5b634e487b7160e01b600052601260045260246000fd5b634e487b7160e01b600052603260045260246000fd5b634e487b7160e01b600052604160045260246000fd5b6001600160a01b038116811461051657600080fdfea2646970667358221220efd19af48dd003970b7dfad90268f048583f27efc1c2b6e5508dc3d87ad480ff64736f6c634300080600334552433732313a207472616e7366657220746f206e6f6e204552433732315265",
  "immutableReferences": {},
  "source": "pragma solidity ^0.8.0;\r\n\r\nimport '@openzeppelin/contracts/token/ERC721/extensions/ERC721Enumerable.sol';\r\nimport '@openzeppelin/contracts/access/Ownable.sol';\r\nimport '@openzeppelin/contracts/utils/Counters.sol';\r\nimport './AuctionArkania.sol';\r\n\r\ncontract TokenArkania is ERC721Enumerable, Ownable {\r\n    using Strings for uint256;\r\n    using Counters for Counters.Counter;\r\n    Counters.Counter private _tokenIdTracker;\r\n    \r\n    /*\r\n    Object of Token\r\n    With two array of parameter uint8 / uint256\r\n     */\r\n    struct Token {\r\n        uint8[] params8;\r\n        uint256[] params256;\r\n    }\r\n\r\n    mapping( string => uint ) paramsContract;\r\n    mapping( uint256 => Token ) private _tokenDetails;\r\n    string public baseURI;\r\n    string public baseExtension = \".json\";\r\n    bool public paused = false;\r\n    address adressDelegateContract;\r\n\r\n    constructor(string memory name, string memory symbol, string memory _initBaseURI) ERC721(name, symbol){\r\n        setBaseURI(_initBaseURI);\r\n        /**\r\n        No need to create here the auction contract from the token contract, but since it seemed to interest louis I did it\r\n        And it also allowed to save some time for the tests\r\n         */\r\n        AuctionContract instanceAuctionContract = new AuctionContract(address(this));\r\n        adressDelegateContract = address(instanceAuctionContract);\r\n        \r\n        /**\r\n        And we mint 10 tokens\r\n         */\r\n        uint8[] memory params8 = new uint8[](10);\r\n        uint256[] memory params256 = new uint256[](10);\r\n        params256[0] = block.timestamp;//created_at\r\n        for (uint8 index = 0; index < 10; index++) {\r\n            _tokenDetails[_tokenIdTracker.current()] = Token(params8,params256);\r\n            _safeMint(msg.sender, _tokenIdTracker.current());\r\n            approve(adressDelegateContract, _tokenIdTracker.current());\r\n            _tokenIdTracker.increment();\r\n        }\r\n    }\r\n\r\n    function _baseURI() internal view virtual override returns (string memory) {\r\n        return baseURI;\r\n    }\r\n\r\n    function setBaseURI(string memory _newBaseURI) public onlyOwner {\r\n        baseURI = _newBaseURI;\r\n    }\r\n\r\n    function tokenURI(uint256 tokenId) public view virtual override returns (string memory) {\r\n        require( _exists(tokenId), \"ERC721Metadata: URI query for nonexistent token\" );\r\n        string memory currentBaseURI = _baseURI();\r\n        return bytes(currentBaseURI).length > 0 ? string(abi.encodePacked(currentBaseURI, tokenId.toString(), baseExtension)) : \"\";\r\n    }\r\n\r\n    /**\r\n    All functions using this modifier can only be called by the delegation contract\r\n     */\r\n    modifier byDelegate() {\r\n        require((msg.sender == adressDelegateContract || adressDelegateContract == address(0))&& !paused,\"Not good address delegate contract\");\r\n        _;\r\n    }\r\n\r\n    /**\r\n    Temporarily lock the contract\r\n     */\r\n    function pause(bool _state) external onlyOwner {\r\n        paused = _state;\r\n    }\r\n\r\n    /**\r\n    Mint a token with parameter send in function argument \r\n     */\r\n    function mint(address sender, uint8[] memory params8, uint256[] memory params256) external byDelegate {\r\n        _tokenDetails[_tokenIdTracker.current()] = Token(params8,params256);\r\n        _safeMint(sender, _tokenIdTracker.current());\r\n        _tokenIdTracker.increment();\r\n    }\r\n\r\n    /**\r\n    Safe transfer one token to another address\r\n     */\r\n    function transfer(address from, address to ,uint256 tokenId) external byDelegate {\r\n        _safeTransfer(from, to, tokenId, \"\");\r\n    }\r\n\r\n    /**\r\n    Set array of contract's parameter dynamicaly, possibility of add an infinite of parameters\r\n     */\r\n    function setParamsContract(string memory keyParams, uint valueParams) external onlyOwner {\r\n        paramsContract[keyParams] = valueParams;\r\n    }\r\n\r\n    /**\r\n    Get value of one element of array parameter of contract\r\n     */\r\n    function getParamsContract(string memory keyParams) external view returns (uint){\r\n        return paramsContract[keyParams];\r\n    }\r\n\r\n    /**\r\n    Update the only address that will be able to call on the token contract \r\n    */\r\n    function setAdressDelegateContract(address _adress) external onlyOwner {\r\n        adressDelegateContract = _adress;\r\n    }\r\n\r\n    function getAdressDelegateContract() external view returns (address){\r\n        return adressDelegateContract;\r\n    }\r\n\r\n    function getTokenDetails(uint256 tokenId) external view returns (Token memory){\r\n        return _tokenDetails[tokenId];\r\n    }\r\n\r\n    /**\r\n    Return array of all token of one user\r\n     */\r\n    function getAllTokensForUser(address user) external view returns (uint256[] memory){\r\n        uint256 tokenCount = balanceOf(user);\r\n        if(tokenCount == 0){\r\n            return new uint256[](0);\r\n        }\r\n        else{\r\n            uint[] memory result = new uint256[](tokenCount);\r\n            uint256 resultIndex = 0;\r\n            uint256 i;\r\n            for(i = 0; i < _tokenIdTracker.current(); i++){\r\n                if(ownerOf(i) == user){\r\n                    result[resultIndex] = i;\r\n                    resultIndex++;\r\n                }\r\n            }\r\n            return result;\r\n        }\r\n    }\r\n\r\n    function getOwnerOf(uint256 tokenId) external view returns (address) {\r\n        return ownerOf(tokenId);\r\n    }\r\n\r\n    /**\r\n    update the values of the token structure dynamicaly\r\n    */\r\n    function updateToken(Token memory _token,uint256 tokenId,address owner) external byDelegate {\r\n        require(ownerOf(tokenId) == owner,\"Not Your token\");\r\n        _tokenDetails[tokenId] = _token;\r\n    }\r\n    \r\n    /**\r\n    Burn a token (Useless for this project, but it's always good to have one)\r\n     */\r\n    function burn(uint256 tokenId) external byDelegate {\r\n        _burn(tokenId);\r\n    }\r\n\r\n}\r\n",
  "sourcePath": "C:\\Users\\KevinDell'ova\\Desktop\\Arkania\\contracts\\ArkaniaToken.sol",
  "compiler": {
    "name": "solc",
    "version": "0.8.6+commit.11564f7e.Emscripten.clang"
  },
  "schemaVersion": "3.4.4",
  "updatedAt": "2022-02-27T16:37:18.048Z",
  "networkType": "ethereum",
  "devdoc": {
    "kind": "dev",
    "methods": {
      "approve(address,uint256)": {
        "details": "See {IERC721-approve}."
      },
      "balanceOf(address)": {
        "details": "See {IERC721-balanceOf}."
      },
      "getApproved(uint256)": {
        "details": "See {IERC721-getApproved}."
      },
      "isApprovedForAll(address,address)": {
        "details": "See {IERC721-isApprovedForAll}."
      },
      "name()": {
        "details": "See {IERC721Metadata-name}."
      },
      "owner()": {
        "details": "Returns the address of the current owner."
      },
      "ownerOf(uint256)": {
        "details": "See {IERC721-ownerOf}."
      },
      "renounceOwnership()": {
        "details": "Leaves the contract without owner. It will not be possible to call `onlyOwner` functions anymore. Can only be called by the current owner. NOTE: Renouncing ownership will leave the contract without an owner, thereby removing any functionality that is only available to the owner."
      },
      "safeTransferFrom(address,address,uint256)": {
        "details": "See {IERC721-safeTransferFrom}."
      },
      "safeTransferFrom(address,address,uint256,bytes)": {
        "details": "See {IERC721-safeTransferFrom}."
      },
      "setApprovalForAll(address,bool)": {
        "details": "See {IERC721-setApprovalForAll}."
      },
      "supportsInterface(bytes4)": {
        "details": "See {IERC165-supportsInterface}."
      },
      "symbol()": {
        "details": "See {IERC721Metadata-symbol}."
      },
      "tokenByIndex(uint256)": {
        "details": "See {IERC721Enumerable-tokenByIndex}."
      },
      "tokenOfOwnerByIndex(address,uint256)": {
        "details": "See {IERC721Enumerable-tokenOfOwnerByIndex}."
      },
      "tokenURI(uint256)": {
        "details": "See {IERC721Metadata-tokenURI}."
      },
      "totalSupply()": {
        "details": "See {IERC721Enumerable-totalSupply}."
      },
      "transferFrom(address,address,uint256)": {
        "details": "See {IERC721-transferFrom}."
      },
      "transferOwnership(address)": {
        "details": "Transfers ownership of the contract to a new account (`newOwner`). Can only be called by the current owner."
      }
    },
    "version": 1
  },
  "userdoc": {
    "kind": "user",
    "methods": {
      "burn(uint256)": {
        "notice": "Burn a token (Useless for this project, but it's always good to have one)"
      },
      "getAllTokensForUser(address)": {
        "notice": "Return array of all token of one user"
      },
      "getParamsContract(string)": {
        "notice": "Get value of one element of array parameter of contract"
      },
      "mint(address,uint8[],uint256[])": {
        "notice": "Mint a token with parameter send in function argument "
      },
      "pause(bool)": {
        "notice": "Temporarily lock the contract"
      },
      "setAdressDelegateContract(address)": {
        "notice": "Update the only address that will be able to call on the token contract "
      },
      "setParamsContract(string,uint256)": {
        "notice": "Set array of contract's parameter dynamicaly, possibility of add an infinite of parameters"
      },
      "transfer(address,address,uint256)": {
        "notice": "Safe transfer one token to another address"
      },
      "updateToken((uint8[],uint256[]),uint256,address)": {
        "notice": "update the values of the token structure dynamicaly"
      }
    },
    "version": 1
  }
}